:1000000000000220A92F0000D52F0000D52F0000EE
:10001000D52F0000D52F0000D52F0000D52F0000D0
:10002000D52F0000D52F0000D52F0000D52F0000C0
:10003000D52F0000D52F0000D52F0000D52F0000B0
:10004000D52F00000D020000D52F0000D52F000095
:10005000D52F0000D52F0000D52F0000D52F000090
:10006000D52F0000D52F0000D52F0000C1010000C2
:10007000D52F0000D52F0000D52F0000D52F000070
:10008000D52F000095200000D52F0000D52F0000AF
:10009000D52F0000D52F0000D52F0000D52F000050
:1000A000D52F0000D52F0000D52F0000D52F000040
:1000B000D52F0000D52F000095270000D52F000078
:1000C000D52F0000D52F0000D52F0000D52F000020
:1000D000D52F0000D52F0000D52F000010B5054CFE
:1000E000237833B9044B13B10448AFF300800123E4
:1000F000237010BDC800002000000000144F000055
:1001000008B5064B1BB106480649AFF30080064808
:10011000036813B1054B03B1984708BD0000000008
:10012000144F0000CC000020C4000020000000009C
:10013000154B002B08BF134B9D46A3F5803A0021B9
:100140008B460F461348144A121A03F043FE0F4B16
:10015000002B00D098470E4B002B00D09847002072
:10016000002104000D000D48002802D00C48AFF318
:10017000008003F009FE2000290000F0CFF903F011
:10018000EFFD00BF0000080000000220000000009A
:1001900000000000C8000020A001002000000000B6
:1001A00000000000014B02221A7070470800002076
:1001B000704700BF014B03221A70704708000020EF
:1001C0000D4B0E4A4FF40071C3F81C1111680C4B13
:1001D0000131A3FB01035B0803EB43030948CB1A7E
:1001E0000021136001601368022B074B0CBF04222F
:1001F00001221A60704700BF006000408C0100209F
:10020000ABAAAAAA840100209401002007494FF458
:100210008060074B074AC1F81C0112681968013158
:10022000B1FBF2F002FB10121A6070470060004050
:10023000840100209401002010B5174882B00121EC
:1002400000F0A2FD012002460921002301F078F907
:10025000012002460A21002301F072F9012409213C
:1002600020460A4600940194002301F033F90A2144
:100270000A46009401942046002301F02BF9074B15
:1002800002214FF40062C3F880111960C3F8802185
:100290001A6002B010BD00BF00D2040000E100E00F
:1002A00010B51F4B82B01B68032B03D8DFE803F0A7
:1002B0000221162C1B4B93E8030000900020ADF8A0
:1002C000041001F035FF0446684602F057FD204651
:1002D00001F038FF02F076FC02B010BD124B93E83B
:1002E000030000900220ADF8041001F021FF044645
:1002F000EAE70E4B93E8030000900120ADF80410EC
:1003000001F016FF0446DFE7094B93E80300009075
:100310000320ADF8041001F00BFF0446D4E700BF42
:1003200084010020704600008046000078460000EE
:10033000884600002DE9F04F674E87B096F80080A0
:1003400002F040F8654802F015F86548654901F08B
:1003500097FE654DDFF884A1644FDFF8BC912B78E0
:100360005BB2032BFBD8DFE803F057150B0200202C
:1003700001F0E6FD307802F0CFFB01232B70EEE7B1
:10038000012001F0DDFD02F0AFFB02F0CBFD002308
:100390002B70E4E701F064FF01F0E2FEB0F1FF3FF3
:1003A00083460CD000214FF47A72514BDAF80000EA
:1003B000009102F059F889FB0B23A3EBEB7B00249F
:1003C000A34520464FF0000104F10104A8BF01211C
:1003D00002F07AFB082CF3D102F094FD454802F0BC
:1003E000ADFDE0B101243470DFF8ECB0B8F1000FDE
:1003F00009D1204602F090FB20469BF8001002F045
:10040000A5FC9BF800803B68012B0CD03AD3022B53
:10041000A5D1FFF745FFA2E701F022FF9FE73B6868
:100420003070012BF2D1344B1A889B78ADF808203C
:100430008DF80A3001F094FE044602F0C3FB631C01
:1004400046D004EB4404072103A82C4AC4EBC4049F
:1004500003F0C8FC89FB0412E4172949C4EBE2024B
:1004600081FB0213A3EBE27303EB4301521A06A9CB
:100470000A4412F8102C0B4403A803F80C2C02F0C9
:100480007DFC6CE701F06CFE1E4904460B680A46D1
:1004900098423FF464AF106002F094FB1A4AD2F81D
:1004A00000B0621C584608BF002403F0CDFC07389A
:1004B00004FB00F4154B03A8A3FB0413144A082102
:1004C0000BEB531303F08EFC03A802F057FC46E736
:1004D000104802F053FC42E7E400002088010020AD
:1004E000B1010000B5010000080000208C010020CF
:1004F000A50100009A993940584600006446000062
:10050000565555550000002004000020ABAAAAAAA9
:10051000904600005C460000ABAAAA2A00B5104B2A
:1005200083B01C68684601F075FCB4F1805F03D3AA
:100530009DF80030032B0AD002F0AAFE02F04CFD19
:10054000012001F091FEFFF777FEFFF7F3FE054B68
:100550001A6822F0500242F010021A60ECE700BF65
:10056000FC81E00FC0800C40CB682DE9F0034F7A8E
:100570000E7891F808C01B024D788C7A4A683F01CA
:1005800043F0807391F80B9047EA0C27F60743F08D
:10059000B00346EA857547EA02620E7C43EA0473BB
:1005A00000F104782A4343EA09434FEA4811026004
:1005B00043600E60BDE8F003704700BF10B40468EC
:1005C00042EA012224F0080444EAC30303605DF810
:1005D000044BC261704700BF08B500F00F03013B38
:1005E000062B7DD8DFE803F03C4C5B7C7C6A040082
:1005F000484BDB6A03F46033B3F5803F74D0B3F546
:10060000003F6FD0B3F5004F0CBF08230123424ACF
:10061000904260D0414A904203D13E4B9B6AC3F363
:100620008103032B1AD8DFE803F0130F0B0202F04B
:10063000D3FC3B4B3B4A1B6812680133D84008BDD2
:10064000BDE8084002F0B4BDBDE8084002F0A8BD16
:10065000314B98424CD0314B984252D0002008BDCB
:100660002C4BDB6A03F47053B3F5805F3AD0B3F5DB
:10067000005F39D0B3F5006F0CBF04230523C6E734
:10068000244A936A03F00303022BC0D0032B2DD01E
:10069000012B27D0936ADA030ED50923B7E71D4A49
:1006A000936A03F00C03082B1ED00C2B1ED0042BD6
:1006B00018D0936ADB02F0D40123A8E7154B1B681E
:1006C00013F080531BD0144AB3F1805F0CBF082392
:1006D000012390429ED10F4B9B6A03F00303A0E7D6
:1006E000002394E7032392E7022390E706238EE793
:1006F000084B10209B6A33FA00F006D108BD07238F
:1007000085E7044B14209B6AF5E7BDE8084002F03A
:100710004BBD00BF00800C400200180003001A000F
:1007200078009043A000904338B5C0F30313013B19
:100730000C46062B05D8DFE803F00F0404212C3EFD
:10074000050038BDA94B984200F0DC8003F5043366
:10075000984200F0C08038BD02F0AEFCA44B41F6D8
:100760007131DA6BD9635B6803F00703042B40D95E
:10077000A04B984240F26981052045E09E4BB1FABA
:1007800081F49A68C4F11F0422F00F0214439C60A4
:1007900038BD02F091FC964B41F67131DA6BD963AA
:1007A0005B6803F00703042B40D9924B984240F258
:1007B0005481052045E0914B984200F02F8140F292
:1007C000B7808F4B984200F0F9808E4B984240F0F2
:1007D000D380894A536DD90740F1BE80864BB4FA65
:1007E00084F49A6EC4F11F0422F0030222439A6635
:1007F00038BD012101FA03F313F0130FB8D07D4B7C
:10080000984240F242810420794B596821F0070157
:10081000014359600AB10022DA63774B013C1A6840
:1008200022F4E03242EA84341C6037E0012101FA0C
:1008300003F313F0130FB8D06E4B984240F21581BA
:1008400004206B4B596821F00701014359600AB13C
:100850000022DA6302F034FC6B4BB0FBF4F0DB6C8B
:10086000C3F307434A2B00F09480792B00F091806A
:10087000604A482B18BF00229042644D644994BFDF
:10088000002201225C4B2A600A605A68B4FA84F4A0
:10089000C4F11F0422F00F0214435C6002F09CFBC1
:1008A000534B41F67131DA6BD9635B6803F0070390
:1008B000042B62D94F4B984240F2DF8005204C4B0D
:1008C000596821F0070101435960002A3FF439AF0C
:1008D0000022DA6338BD484A536DD9070BD5464B21
:1008E000B4FA84F41A6FC4F11F0422F0300242EA11
:1008F00004121A6738BD136D5B06F0D5136D5B06E5
:10090000F9D4ECE73C4A536DDD070AD53A4BB4FA0B
:1009100084F41A6FC4F11F0422F0030222431A6701
:1009200038BD136D5806F1D5136D5806F9D4EDE7AF
:10093000A3F5043398421ED12F4A536DDD0713D51A
:100940002D4BB4FA84F49A6EC4F11F0422F0F00225
:1009500042EA04129A6638BD136D5B077FF53EAF1D
:10096000136D5B07F8D439E7136D5807E8D5136D9D
:100970005807F9D4E4E738BD38BD012101FA03F383
:1009800013F0130F96D01B4B984240F28680042040
:1009900095E7204B17491D699A69DB6905F03F050A
:1009A000C3F3031343EA052502F0F0021A4B2A436E
:1009B000B2F5017F34BF0A461A465DE70E4A536D11
:1009C000DD070BD50C4BB4FA84F49A6EC4F11B040A
:1009D00022F4405242EA04329A6638BD136D580739
:1009E000F0D5136D5807F9D4ECE700BF7007140079
:1009F00000000C400048E80100800C406026120016
:100A00006000240060062800B081E00F7800904369
:100A1000A0009043D0FF0FE000366E01234A536DD3
:100A2000D9070BD5214BB4FA84F49A6EC4F11F0494
:100A300022F4706242EA04229A6638BD136D5B07A5
:100A4000F0D5136D5B07F9D4ECE7194B1949034452
:100A50008B4294BF03200220D6E6154B1549034470
:100A60008B4294BF03200220EBE6114B1149034453
:100A70008B428CBF00200120E3E60D4B0D4903445F
:100A80008B4294BF0320022019E7094B0949034414
:100A90008B428CBF00200120B6E6054B054903447C
:100AA0008B428CBF0020012009E700BF00800C4072
:100AB000FFDB0BFFFF23F40000F00F0001380628D6
:100AC0004ED8DFE800F01424334D4D420400294B8A
:100AD000DB6A03F46033B3F5803F43D0B3F5003FE6
:100AE00042D0B3F5004F0CBF082001207047214BC6
:100AF000DB6A03F47053B3F5805F35D0B3F5005F64
:100B000030D0B3F5006F0CBF042005207047194B9F
:100B1000986A00F00300022825D0032826D0012877
:100B200022D09B6ADA030ED509207047114A936AD6
:100B300003F00C03082B15D00C2B17D0042B13D06B
:100B4000936ADB02F0D4012070470A4B1B6813F054
:100B500080530DD0B3F1805F0CBF08200120704797
:100B6000002070470220704703207047062070471E
:100B70000720704700800C4000F47810B0F5A01FEB
:100B800008B500F093800ED8B0F5402F7ED021D864
:100B9000B0F5003F76D0B0F5802F00F0B08000288F
:100BA0007BD0002008BDB0F5001F00F09A8039D836
:100BB000B0F5C01F61D0B0F5D01F72D0B0F5B01F36
:100BC000EFD16448FFF708FD634B1B6FC3F30113BC
:100BD000D84008BDB0F5801F37D0B0F5901F6ED05B
:100BE000B0F5602FDDD15C4B5B6903F4E063B3F5D6
:100BF000007F00F09E8040F28A80B3F5C06F00F065
:100C0000A480B3F5E06F00F09E80B3F5407FC8D1BB
:100C1000524B534AD86C534BB0F1985F34BF1046D7
:100C2000184608BDB0F5181F18D0B0F5201F4FD0DA
:100C3000B0F5101FB5D14C48FFF7CEFC464B9B6E6C
:100C4000C3F301330433D84008BD4748FFF7C4FC61
:100C5000414B9B6EC3F30313D84008BD4248FFF7D6
:100C6000BBFC3D4B9A6EDB6FC2F30132D04003F008
:100C700007030133B0FBF3F008BD3B48BDE8084073
:100C8000FFF7AABCBDE8084002F0A6B9324A1368D3
:100C900013F0805346D0002B83D0BDE8084002F00B
:100CA0000FBA2C48BDE80840FFF796BC2948FFF76B
:100CB00093FC294B1B6F03F00303D84008BD2A485F
:100CC000FFF78AFC244B9B6EC3F30323D84008BD77
:100CD0002548FFF781FC204B9B6E03F00303D840AF
:100CE00008BD2248FFF7E8FE032817D00828D4D013
:100CF00002287FF456AFBDE8084002F059BA02F06E
:100D0000DFF9154B9B6803F00F03D84008BDF3B122
:100D1000B3F5807F7FF445AF154808BDBDE80840B6
:100D200002F03EBA536903F4E063B3F5007F7FF449
:100D300062AF0A4B0F4AD86C0F4BB0F1985F34BFCB
:100D40001046184608BD0D4808BD0D4808BD0D48A1
:100D500008BD00BF03001A0000800C40B081E00F06
:100D600040420F00804F12000200180007232000AD
:100D7000C0D8A700C0CF6A0040B56400406F4001F2
:100D8000003FAB01809FD50070B5C0F30323013B4A
:100D900082B00446092B11D8DFE803F02219241091
:100DA000101D05101020274A1020274DC4F30434CD
:100DB0006B6DDB0704D522449200116002B070BD58
:100DC0002B6D1842F7D02B6D1842F9D1F3E71F4A6B
:100DD000C4F30434EFE71E4A0120E6E71D4AF7E7B3
:100DE0001D4AF5E7019102F0F7F81C4B0199DA6C06
:100DF000C2F307424A2A0FD0792A0DD0184B482A4D
:100E000018BF0023174A9842174D94BF00230123AF
:100E10001360164A2B60DBE7154A114D166993697A
:100E2000D26906F03F06C2F3031242EA062603F037
:100E3000F003104A3343B3F5017F34BF2B4613460A
:100E4000E0E700BF0003E41000800C402002E41043
:100E5000C002E410C003E4104000E410B081E00FD1
:100E60000048E80178009043A00090430002E4109D
:100E7000D0FF0FE000366E0138B500F00F04631E9E
:100E8000062B52D8DFE803F07A626251515D5600BA
:100E9000012202FA03F313F0130F00F09680A84B1F
:100EA000984240F23C820420A64B5A6822F0070286
:100EB00002435A6009B10022DA63A34BA3485C6283
:100EC000FFF75AFEA24BDB6CC3F307434A2B00F03B
:100ED0008881792B00F085819949482B18BF002122
:100EE00088429C4A9C4B94BF0020012010601860EF
:100EF00000F0D8FA02F070F8924B41F67131DA6BDB
:100F0000D9635B6803F00703042B40F25D818C4BCF
:100F1000984240F2EC8105208A4B596821F0070184
:100F2000014359600AB10022DA638A4A8A4B126887
:100F30001B6838BD03294ED0082973D002295AD026
:100F400038BD072923D0082966D038BD01390829C2
:100F5000F6D801A252F821F01B1100002311000065
:100F600071110000410F0000410F00008B110000C3
:100F7000410F0000410F0000F91000000239032961
:100F8000DED8DFE811F00A00B50056008D006E4B88
:100F90001A6822F080521A60C7E7704A04244FF49E
:100FA000807369490B621368002BFCD000F07AFA59
:100FB00002F082F8634B41F67132D96BDA635B68F9
:100FC00003F00703042B7FF663AF5D4B984240F2BA
:100FD0009681052068E75C4B4021614A19621368DD
:100FE000002BFCD000F05EFA574A60235362D36AAC
:100FF0009903FCD599E7544B4FF48071574A196215
:101000001368002BFCD000F04DFA4F4A4023536286
:10101000D36AD803FCD588E74B4B1A6842F080525C
:101020001A6082E7484A20235362D36A1B04FCD526
:101030007BE7474BDB6CC3F307434A2B00F004818B
:10104000792B00F001814748482B18BF0120404B05
:10105000DB6CC3F307434A2B00F0E280792B00F0EE
:10106000DF80374A482B0CBF1346002383423A4A9D
:1010700038492CBF002301230B60136002F088F86D
:101080002F4B02249842304B1A6896BF22F0600220
:1010900042F0600242F020021A60334A042380E7E3
:1010A0002B4BDB6CC3F307434A2B00F0F680792B04
:1010B00000F0F3802B48482B18BF0120244BDB6C39
:1010C000C3F307434A2B00F0D480792B00F0D18082
:1010D0001B4A482B18BF002290421E4B1E4994BF4A
:1010E0000022012201241A600A6023461F4A58E7A1
:1010F0001B4A0324402354E74FF480114FF48033FC
:101100000022022C00F082800F4A936A23F480139D
:1011100023F00C030B43936207E700210B460A46BA
:10112000EFE7094B4FF480710C4A19621368002BEA
:10113000FCD000F0B7F9082100230222E1E700BF4C
:101140000048E80100000C4000800C400043020011
:10115000B081E00F78009043A0009043A405904335
:101160009C0590430148E8018C0590438405904319
:101170006F4B40216F4A19621368002BFCD000F0BE
:1011800091F9042100230122BBE701F025FF6A4BFE
:10119000DB6CC3F307434A2B00F09480792B00F0FB
:1011A0009180664D482B18BF0025A8426449654BC5
:1011B000654A94BF002001200125086018600C21B9
:1011C0001560002303229CE7012101FA03F313F0C9
:1011D000130F3FF49CAE594B984240F29880042084
:1011E0009AE65A4B554A1C699969DB6904F03F0439
:1011F000C3F3031343EA042401F0F001544B2143E9
:10120000B1F5017F34BF1146194669E648481343DA
:10121000816A21F4803121F003011943816284E65F
:101220004A4A464B14699169D26904F03F04C2F3FB
:10123000031242EA042401F0F001454A2143B1F5CA
:10124000017F28BF134611E7404B424A186999694C
:10125000DB6900F03F00C3F3031343EA002001F011
:10126000F0013D4B0843B0F5017F34BF10461846EE
:10127000EDE6364B314A1C699969DB6904F03F049D
:10128000C3F3031343EA042401F0F001304B21437C
:10129000B1F5017F28BF1A461EE72C4B2D4A18696D
:1012A0009969DB6900F03F00C3F3031343EA0020B0
:1012B00001F0F001284B0843B0F5017F34BF104620
:1012C0001846FBE6214B1D4A1D699969DB6905F04B
:1012D0003F05C3F3031343EA052501F0F0011C4B5E
:1012E0000D43B5F5017F34BF15461D465DE71B4B29
:1012F0001B4903448B4294BF032002200CE6174B8A
:10130000174A0344934294BF03200220CCE5134BB9
:10131000134903448B428CBF00200120FCE50F4B96
:101320000F4A034493428CBF00200120BCE500BF5C
:1013300000800C409C059043B081E00F0048E8011C
:1013400078009043A000904310089043D0FF0FE036
:1013500000366E010148E80101366E01FFDB0BFF2C
:10136000FF23F400054B9A6D120706D4DA6F00F0E4
:10137000070022F007021043D867704700800C4036
:10138000204B45F60E01204A10B4D3F88440C3F830
:101390008410126840F2551102F470501140B0F5FB
:1013A000805F04F00104196202F0010221D0B0F55F
:1013B000005F16D0B0F5006F0BD012B9114B0222AE
:1013C0001A621CB10F4B0022C3F884205DF8044B55
:1013D00070471846C36A0B491B07FBD502234B62B3
:1013E000EBE71846C36A07499B05FBD504234B620C
:1013F000E3E71846C36A03491B06FBD503234B6288
:10140000DBE700BF00800C40E80000201F4B2049B4
:10141000DB6A204A70B40B6016691F4B46F0040665
:1014200016611E699A69DB6906F03F06C3F3031370
:1014300043EA062302F0F0021343B3F5827F0BD395
:10144000B3F5017F08D0002230BFA2B9C0B90B6844
:101450005B0518D570BC7047104B114C1D680122FC
:101460002C40C3F880405D6825F04605C3F88450E1
:1014700030BF002AEAD0094B1C605D600028E6D02E
:1014800070BCFFF77DBF70BC01F0A6BD00800C40B2
:10149000E800002000ED00E0D0FF0FE000E100E0F8
:1014A0009CF1FD00024A034BD26A1A60704700BFEC
:1014B00000800C40E800002000EBC000800000F13C
:1014C000804000F5C040036823F003031943016026
:1014D000704700BFF0B407299DF810609DF81440D4
:1014E0001AD9A1F108029200072595409040104AB0
:1014F000176827EA05052843106001258D400D4A2D
:101500000D480A4492001360C2F88060C0F81C5174
:10151000C2F80041F0BC70478A0007259540904012
:10152000064A176827EA050528431060E5E700BF6B
:1015300004610040400883100060004000610040EA
:10154000F0B4B2BBC40007291DD88D004FF00F0CBA
:101550000CFA05FC02FA05F72518AD0005F18045E7
:1015600005F5C0456E6826EA0C063E436E6042B93A
:101570008BBB012303FA01F120441D4B800003447F
:101580005960F0BC704701F18045083DAD004FF057
:101590000F0C0CFA05FC02FA05F72518AD0005F151
:1015A000804505F5C045AE6826EA0C063E43AE60B0
:1015B000DDE701268E40C4003BB12518AD0005F1E2
:1015C000804505F5C0452E61BDE72718084DBF00D1
:1015D0003D446E60B7E7012303FA01F12044800027
:1015E00000F1804000F5C0400161F0BC704700BFD1
:1015F000106000400E4BF0B45A68C468416822F491
:101600008302067A22F01F022143477A0A431D68AB
:101610003243068A3A43007825F0010532431D60C3
:101620005A6018B11A6842F001021A60F0BC7047A3
:1016300000A00840054BB0F5803F5B68034A23F4E7
:10164000803308BF43F480335360704700A00840E4
:10165000044B9A6819B922EA000098607047104359
:101660009860704700A0084007280BD8DFE800F01A
:101670000B121A22293139041F293FDD224B0B445A
:101680009B001A6070471F2933DC204B0B449B00E2
:101690001A6070471F29D4BF1D4B1E4B0B449B0083
:1016A0001A6070471F29D4BF1B4B1C4B0B449B0077
:1016B0001A6070471F291CDD194B0B449B001A60F0
:1016C00070471F29D4BF174B174B0B449B001A6060
:1016D00070471F29D4BF154B154B0B449B001A6054
:1016E00070471F29D4BF134B134B0B449B001A6048
:1016F0007047124B0B449B001A607047104B0B4411
:101700009B001A60704700BFE005C5100002C510BD
:101710002002C5108002C5104002C510A002C510ED
:10172000C002C5106006C5108005C5108006C51032
:10173000A005C510A006C510C005C5106002C510E3
:10174000C006C51007280ED8DFE800F00E161E26CA
:101750002E384204234B0A40D3F8D80020EA010176
:101760000A43C3F8D82070471E4B0A40186C20EA81
:1017700001010A431A6470471A4B0A40586C20EA68
:1017800001010A435A647047164B0A40986C20EADC
:1017900001010A439A647047124B0A40D86C20EA50
:1017A00001010A43DA6470470E4B0A40D3F8CC00BB
:1017B00020EA01010A43C3F8CC207047094B0A40D4
:1017C000D3F8D00020EA01010A43C3F8D0207047C3
:1017D000044B0A40D3F8D40020EA01010A43C3F8BD
:1017E000D420704700A0084007280ED8DFE800F09A
:1017F0000E161E262E384204234B0A40D3F8C00092
:1018000020EA01010A43C3F8C02070471E4B0A407A
:10181000186D20EA01010A431A6570471A4B0A4005
:10182000586D20EA01010A435A657047164B0A4079
:10183000986D20EA01010A439A657047124B0A40ED
:10184000D86D20EA01010A43DA6570470E4B0A4061
:10185000D3F8B40020EA01010A43C3F8B42070476A
:10186000094B0A40D3F8B80020EA01010A43C3F843
:10187000B8207047044B0A40D3F8BC0020EA0101AD
:101880000A43C3F8BC20704700A00840034B5A68C5
:1018900022F4E01210435860704700BF00A00840D7
:1018A0002DE9F001002940F08780C26883688178C3
:1018B000477813430B43C178047943EA870747EA23
:1018C00041279C4B4179827947EA8427C6795C6835
:1018D00047EA4137457C017D47EA424790F83C2082
:1018E00047EA064724F4400C90F83B40866A47EAF2
:1018F00085574CEA815C858D016A9203C3F804C068
:1019000042EA842290F818C090F83D401F601F689A
:1019100031432A43467E90F83E5090F8008041EAD9
:101920000C0142EA844290F81AC090F8344041EA2F
:10193000860142EA8552C67E90F8355027F00307AB
:1019400048EA070741EA8C1142EA440290F81CC0B9
:1019500090F8364041EA46011F6090F83760477FB3
:1019600042EA850242EAC402857F90F8384041EAA3
:101970000C1141EA072142EA061290F8247090F80F
:10198000396041EA852142EA441290F8255090F8E6
:101990003A4041EA075142EA861241EA855142EA59
:1019A000C4129960DA60016B027C01F00F011963C7
:1019B000BDE8F0011A6170475E4B5F4A0021D964AF
:1019C0005A64DA68194642F00102DA600A6D594B2E
:1019D00012F02002FAD10A2159611A6019469A6060
:1019E000DA601A619A619A63DA635A65C3F8C022B1
:1019F000C3F8C422C3F8C822C3F8D022C3F8D42243
:101A0000C3F8D822C3F8E022C3F8E422C3F8E822DE
:101A1000C3F8F022C3F8F422C3F8F822C3F8002375
:101A2000C3F80423C3F80823C3F81023C3F814230E
:101A3000C3F81823C3F82023C3F82423C3F82823AA
:101A4000C3F83023C3F83423C3F83823C3F8402342
:101A5000C3F84423C3F84823C3F85023C3F85423DE
:101A6000C3F85823C3F86023C3F86423C3F868237A
:101A7000C3F87023C3F87423C3F87823C3F8802312
:101A8000C3F88423C3F88823C3F89023C3F89423AE
:101A9000C3F89823C3F8A023C3F8A423C3F8A8234A
:101AA000C3F8B023C3F8B423C3F8B823C3F80022A3
:101AB000C3F80422C3F80822C3F80C22C3F810228A
:101AC000C3F81422C3F81822C3F81C22C3F820223A
:101AD000C3F82422C3F82822C3F82C22C3F83022EA
:101AE000C3F83422C3F83822C3F83C22C3F840229A
:101AF000C3F84422C3F84822C3F84C22C3F850224A
:101B0000C3F85422C3F85822C3F85C22C3F86022F9
:101B1000C3F86422C3F86822C3F86C22C3F87022A9
:101B2000C3F87422C3F87822C3F87C220B6D9B069D
:101B3000FCD4BAE600C00840FFFF7F0070B50C4639
:101B4000C8B3B0FBF4F3402B39D96300B0FBF3F317
:101B5000402B37D9A300B0FBF3F3402B36D9E30079
:101B6000B0FBF3F3402B34D92301B0FBF3F3402B4C
:101B700032D96301B0FBF3F3402B30D9A301B0FBA2
:101B8000F3F3402B2ED9E301B0FBF3F3402B2CD918
:101B90004FF4E0668024164904FB03F44D68013BD2
:101BA00025F47F2222F4E062324342EA0333B0FBA1
:101BB000F4F04B6070BD0F48FEF7DEFFC1E7002672
:101BC0000124E8E7022401263602E4E70424022681
:101BD000FAE708240326F7E710240426F4E7202474
:101BE0000526F1E740240626EEE780240726EBE7EA
:101BF00000C008406006280040B101280DD1074B05
:101C00005A6822F00302114359607047034B5A6827
:101C100022F0700242EA01115960704700C008408A
:101C20002DE9F00700243B4E23460327057A5A008E
:101C300007FA02FC9540B16B1A0121EA0C01294315
:101C4000B163457C017C90F80FC06D0345EA8115B6
:101C500002F1804101F50C2145EA0C05C1F8C052A2
:101C600090F80E80B0F8149090F80DA0B0F816C05F
:101C700045684FEA88484CEA090C48EA4A4890F817
:101C8000099048EA05081FFA8CFC234D48EA0C0C21
:101C900015444CEAC94CC5F804C090F80C8090F883
:101CA0000AC0C5694FEA884848EA4C4890F80BC01A
:101CB00048EA050545EACC45C1F8C852D1F8C452F6
:101CC000B0F812C025F47F6525F00F054CEA050534
:101CD000B0F818C0C1F8C452D1F8C8520A462D0C49
:101CE0002D044CEA0505C2F8C8520C4982782144FB
:101CF0000A600B4A4178224411600A4A10F8201BFE
:101D000001332244102B116004F104048ED1BDE88C
:101D1000F007704700C00840C0C20840800918435F
:101D2000800A184300031843000100F1804303F5C3
:101D30000C2310B4D3F8C442184624F47F6424F072
:101D40000F042143C3F8C412D3F8C8325DF8044B22
:101D50001B0C1B041A43C0F8C822704705490B6DC1
:101D6000044A9806FBD401235361136D9B06FCD4EF
:101D7000704700BF00C0084005490B6D044A980633
:101D8000FBD402235361136D9B06FCD4704700BF44
:101D900000C0084005490B6D044A9806FBD408238F
:101DA0005361136D9B06FCD4704700BF00C0084010
:101DB00030B1012802D1044BD86870470020704729
:101DC000014B9868704700BF0000084028B1012807
:101DD00002D1034B196070477047024B196070477E
:101DE0000C00084008000840427803780AB143F02C
:101DF000020382780AB143F00403014A136070477A
:101E0000000008404FF086430021012219601A604B
:101E1000704700BF0B4B59691A6901F00F01C2F3FB
:101E2000811242EA810282701A6902F03F02427016
:101E30009A69DB6902F0F002C3F3031313430370E2
:101E4000704700BFD0FF0FE0037810B4002B66D0BE
:101E50004FF080431A681A431A604FF080431A68A3
:101E6000446822F070621A601968027A41EA0461DB
:101E70001960002A4ED01A6842F400321A60437A80
:101E8000002B40D04FF080431A6842F480321A6031
:101E90004FF080431A68847A22F4E0621A6019686D
:101EA000C27A41EA04211960002A44D0012A3DD0B7
:101EB0004FF080431968C268446941EA82021A609F
:101EC0005968027E21F03F0121435960B2B119687F
:101ED000027C41F0010119604AB119468B684FF04C
:101EE0008042DB07FAD5536843F4807353604FF0A8
:101EF000804301229A615DF8044B70471A6822F012
:101F000001021A60F3E74FF080431A6822F480322E
:101F10001A60BDE71A6822F400321A60AFE74FF08A
:101F200080431A6822F080421A6096E71A6842F0ED
:101F300010021A60BCE71A6822F010021A60B7E7B4
:101F400070B5484E04463378002B40F08580002C55
:101F500065D0FFF711FF444B186A434C10F0100591
:101F6000FAD1FFF717FF28460421FFF7E7FD2946BE
:101F700028463E4DFFF740FE3D48FFF751FE2A88B8
:101F800008203721FFF7D0FE6A8809203721FFF7A4
:101F9000CBFEAA880A203721FFF7C6FEEA880B206D
:101FA0003721FFF7C1FEE36C23F48033E364314B48
:101FB0004FF400321A60FFF7D1FE337829496BB332
:101FC0000023294A0B70136A27499B07FBD5D1F8D8
:101FD000A032264C013B2380D1F8A432D1F8A8527C
:101FE000013B6380D1F8AC322288013B013D0820DF
:101FF0003721E380A580FFF797FE6288092037210B
:10200000FFF792FEA2880A203721FFF78DFEE288B3
:102010000B203721BDE87040FFF786BE70BDFFF78B
:10202000ABFE114B186A104C10F01005FAD14FF4AA
:1020300080336364FFF7AEFE40212846FFF77EFD44
:1020400028460321FFF7D8FD0B48FFF7E9FDE36CB5
:1020500043F48033E364AAE708480121FFF720FC3A
:1020600075E700BF4C00002000C008403C01002084
:102070001847000000E100E03C490000D84600009D
:10208000024A034B10601960704700BFF400002043
:10209000F0000020F8B51F4DEA6C2B6C1340DB03F9
:1020A00029D51D4B00224FF4803169641A701A78CB
:1020B0000F2A1CD819481A4E1A4C19461A78825CF5
:1020C00072B1AA6A0F78FFB246F827200F78FFB2E4
:1020D00054F82770974203D20F78FFB244F82720B4
:1020E0001A780132D2B21A701A780F2AE6D90E4B3A
:1020F0001B6803B19847074BD96C1A6C0A4012F45D
:10210000706F06D0094A4FF470615964136803B1C7
:102110009847F8BD00C00840380100202C49000055
:10212000F80000200C000020F4000020F000002047
:10213000022802D8024B185C70470B20704700BF82
:102140003C4B0000044B054A52F8202053F8200075
:102150000002B0FBF2F07047F80000200C000020F5
:102160002DE9F0033B4C8CB006AD0FCC0FC594E8C5
:10217000030001AE083485E803000FCC0FC6364BD0
:10218000364A02A823C80138013952F8209053F882
:10219000208052F821C0013D53F821004FEA0C2C59
:1021A00052F8251053F8257025684FEA0924B4FB2E
:1021B000F8F4BCFBF0F0356007940890059DEB2C1B
:1021C00005F1FF3552F825204FEA0121B1FBF7F167
:1021D00053F825608CBF4FF0FF370127EC2C28BF48
:1021E000EC24A0422CBF3D4602251202844238BF97
:1021F0002046884288BF0325B2FBF6F2814238BFF1
:10220000084682422CBF2B4604230A925A1C09918D
:102210001ED00CA8591E00EB830200EB810452F87B
:10222000140C54F8183C52F8182CC0F58070C2F504
:102230008072C3F58073C000B0FBF2F0DB0000EBEE
:102240000111B3FBF2F2881A0CB0BDE8F00370473D
:102250001846F9E7AC4600000C000020F80000200A
:102260000120FFF7D3B800BF38B5054672B6354C2C
:1022700023685A1C1CBF0133236000F0ADFE1120FF
:102280000521FEF7F9FD30480321FEF7F5FD2F4843
:102290000121FEF7F1FD2E480121FEF775FD2D48C5
:1022A0000121FEF771FD2C480121FEF76DFD2B4841
:1022B0000121FEF769FD2A480121FEF765FD294845
:1022C0000121FEF761FD27480121FEF72DFA0220CA
:1022D0000021FFF7F1F80022134602200821FFF742
:1022E0002FF90022134602200921FFF729F90022C5
:1022F000134602200A21FFF723F900221346022089
:102300000B21FFF71DF900210A460B461648FEF780
:1023100055F900210A460B461448FEF74FF91248BA
:102320001349FEF721F911481149FEF71DF9284616
:10233000FFF706FE2368034A1BB1013B136003B994
:1023400062B638BDEC0000200200180003001A003D
:102350004081040000D204000092040000A20400A6
:1023600000430200600628000010004000140040F6
:102370001849000010B472B60E4B0F4C1A68511C6D
:10238000A17F1CBF01321A6039B10C48013A1A60B2
:1023900002B962B65DF8044B704740B10122A277E2
:1023A000016018680028F5D002460846EEE70448A8
:1023B000ECE700BFEC00002048010020011000F015
:1023C000041000F01D4B70B51C78002C34D1012591
:1023D00029461B481D70FEF7D7FC1A480221FEF75C
:1023E0004BFD19480821FEF79FF929461648FEF7CC
:1023F000CBFC1648FFF7F8FC154B0722D969154EA0
:1024000021F00701D9619A61FFF7FCFC124D134BD3
:10241000134A14484FF08041C2F880115C6011608B
:102420009C601C60DC601C615C619C61DC611C6206
:102430005C6234702C700460002070BD4501002087
:10244000004302000200180060161000404B00001C
:1024500000000840460100204401002048010020FF
:1024600000E100E0700100202DE9F04F894689B0BD
:1024700015461F4618B1B24809B0BDE8F08F72B6D4
:10248000B04E3468631C01D001343460DFF8CC8274
:1024900098F81E30002B57D05DB9002F4ED028463B
:1024A0001299B8473468002C48D1002009B0BDE823
:1024B000F08FDFF8A4E24FF400434FF47A6000217C
:1024C000E3FB05014FF4FA520023C8F81870DEF858
:1024D000047001F065F9B9F1010FC8E902013BD0C0
:1024E00010F1FF3041F1FF31C8E90201964D013092
:1024F0002B78129D41F100010122C8E9000188F802
:102500001F90C8F8205088F81C20BBB98F4A136868
:10251000013302D0136801331360DFF844B29BF833
:10252000003033B3894B1968012942D0874D2B689D
:1025300013B12B68013B2B60002CB6D0013C3460FA
:10254000002CB2D162B6B0E7013C346014B962B677
:102550007F4891E77E488FE74FF47A7303FB05F5D8
:10256000F42303FB10557A23C8F81050C8F8143030
:10257000BCE7784A00238B4208BF824238BF10462E
:10258000DFF8E0E1744C27F07F4C39180225CEF8D3
:1025900000C021F07F41A5610020FFF717FC6E4BC2
:1025A0000122D96941F00201D96134688BF8002019
:1025B000BCE7DFF8B0A10023DAF80020DFF898913B
:1025C0000D4688F81C304FEA072C4DE088F81C5067
:1025D000D8E90023B3F1FF3F08BFB2F1FF3F78D045
:1025E00000215C48584C8BF800100021994208BF2C
:1025F0009042217838BF024600296ED03846022327
:10260000B918CAF8000021F07F41C9F8183000203D
:10261000FFF7DCFB01238BF80030D9F81C3043F0C6
:102620000203C9F81C30D9F80470DAF800404FEA08
:10263000072C0020ACEB0424CDF80CC0FFF7B8FB4E
:10264000DAF800209BF80030801A240A20F07F403E
:10265000DDF80CC0002B00F08780844205F10105F5
:1026600040F2828098F81C30D9F81C00ACEB0222B2
:1026700012F5807F4FF000014FEA122220F0020095
:10268000C9F81C0008BF0A4688F81D10D3B11046CF
:102690000021324ACDE90001D2E90001DDE9002341
:1026A0008B4208BF82421BD32C4BDC7FFCB92B48EA
:1026B0000477D8F818302BB1284C0122627700201B
:1026C000216A9847012D81D098F81C30002B7FF4A7
:1026D0007FAF00238BF80030A5E727F07F408EE71F
:1026E000801A61EB03011D4BC3E90001EAE7DFF843
:1026F0006CE01A4BDEF81040D3E90223121843EBCA
:102700000103DDE90001121A63EB0103002CCDE99E
:102710000623CEE9002329DDDFF840E0DEF81400CF
:102720002118F329CEF81410C3D9DDE906230132AC
:1027300043F10003F439CEE90023CEF81410B8E7D2
:10274000021000F0EC000020460100207001002083
:10275000031000F09BFFFF0000000840480100202C
:1027600044010020740100203468DFE6DEF8140024
:10277000011BF329CEF814109BD9DDE9062312F1D1
:10278000FF3243F1FF33F439CEE90023CEF81410C1
:102790008FE700BF2DE9F04F85B072B66E4D6F4FD9
:1027A0002B68591C1CBF01332B603A6992077DD5F9
:1027B0006B4E6C48DFF8B491D7F80480012332687F
:1027C000DFF8ACA10370CB464446F96999F81CE0E8
:1027D00021F002010023F96189F81D30BEF1000FDC
:1027E0006CD0A21A22F07F410A460023DBE90001E7
:1027F0008B4208BF8242CDE90223CDE9000164D3B8
:102800009BF81F1000296AD18BF81C108E46D9F84E
:10281000183043B101228BF81D200020DBF8201076
:1028200098479BF81CE0BEF1000F47D0D9E9002380
:10283000B3F1FF3F08BFB2F1FF3F3FD04A4800214C
:102840008AF800100021994208BF904238BF024622
:1028500044480178002935D020460223A118306071
:1028600021F07F41BB610020FFF7B0FA01238AF815
:102870000030FB6943F00203FB617C683368002091
:10288000E31A23F07F48FFF793FA32689AF8003092
:10289000801A20F07F400BB1804596D831492B68D3
:1028A00000220A7013B905B0BDE8F08F013B2B6020
:1028B000002BF8D162B605B0BDE8F08F00238AF88E
:1028C0000030DAE724F07F40C7E702460B46DDE937
:1028D0000201121A63EB0103CBE90023A3E7DDE950
:1028E0000023DBE90201DBF810C0121843EB0103FF
:1028F000DDE90201121A63EB0103BCF1000FCDE91F
:102900000023CBE90023DBF8142011DD0CEB0201DE
:10291000F329CBF814107FF67AAFDDE900230132FA
:1029200043F10003F439CBE90023CBF814106EE730
:10293000CCEB0201F329CBF814107FF668AFDDE988
:10294000002312F1FF3243F1FF33F439CBE90023C6
:10295000CBF814105BE700BFEC000020000008403B
:1029600074010020460100209BFFFF004801002069
:102970004401002010B5294C002021460246FEF7F4
:10298000E1FE214601200022FEF7DCFE2146022066
:102990000022FEF7D7FE214603200022FEF7D2FEDA
:1029A000214604200022FEF7CDFE2146052000220C
:1029B000FEF7C8FE214606200022FEF7C3FE214690
:1029C00007200022FEF7BEFE00200246FF21FEF790
:1029D0000BFF0120FF210022FEF706FF0220FF214E
:1029E0000022FEF701FF0320FF210022FEF7FCFE7C
:1029F0000420FF210022FEF7F7FE0520FF21002220
:102A0000FEF7F2FE0620FF210022FEF7EDFEBDE8F4
:102A100010400720FF210022FEF7E6BE00F00FF075
:102A200010B5274C072027490022FEF78BFE2146D0
:102A300006200022FEF786FE214605200022FEF732
:102A400081FE214604200022FEF77CFE2146032061
:102A50000022FEF777FE214602200022FEF772FEDA
:102A6000214601200022FEF76DFE002002464FF0B5
:102A70002041FEF767FE072001460022FEF7B4FE64
:102A8000062007210022FEF7AFFE052007210022C5
:102A9000FEF7AAFE042007210022FEF7A5FE032070
:102AA00007210022FEF7A0FE022007210022FEF7E8
:102AB0009BFEBDE81040012007210022FEF794BED6
:102AC00000E00FF000E00F50064B0A46034493F875
:102AD000060193F80E110AB9FEF7C6BD0122FEF7F2
:102AE000C3BD00BF684B0000084A10B5116813460B
:102AF00021F001011160596E11F00104FBD104486D
:102B00002146FEF741F9034BDC6710BD00A00840E9
:102B10000036260000800C4010B5012104462248F2
:102B2000FEF732F921480321FEF7A6F9402120489B
:102B3000FDF7FAFD0120FEF715FC1E480121FEF706
:102B400023F91D4B0022996A1C489A62FEF752FD38
:102B500008200121FEF77CFD10200121FEF778FD01
:102B600080200121FEF774FD4FF480700121FEF7F3
:102B70006FFD4FF400700121FEF76AFD34B9FFF7D5
:102B8000F9FE0D4A536E002BFCD110BD4FF44020CE
:102B9000FEF77CFE4FF48030FEF74CFD084BDA6FF9
:102BA00042F00802DA67EAE7004302000200180078
:102BB000600024000036260000A00840F04D000010
:102BC00000800C402DE9F84F42F20E739842064601
:102BD00000F3A68010F57A7FD8BF40F2E73600F305
:102BE000A4804FF00109554A556E544B002DFBD17E
:102BF0004FF0010BC3F860B0584678212A46FEF723
:102C0000F3FD022078212A46FEF7EEFD032078210D
:102C10002A46FEF7E9FD042078212A46FEF7E4FD66
:102C2000052078212A46FEF7DFFD062078212A4676
:102C3000FEF7DAFD072078212A46FEF7D5FD404C45
:102C4000DFF804813F4FAA4696FBFBF287FB023177
:102C5000D317C3EBA10303EB8303A2EB4303B9F147
:102C6000000F58D19BB238F8135094F8CB10EB07F3
:102C700094F8C4004BD4AA0794F8CC1094F8C5007B
:102C800041D46B0794F8CD1094F8C60037D42A07C6
:102C900094F8CE1094F8C7002DD4EB0694F8CF101A
:102CA00094F8C80023D4AA0694F8D01094F8C90068
:102CB00019D46B0694F8D11094F8CA000FD40AF115
:102CC000010A0BEB8B0BBAF1040F4FEA4B0B04F12B
:102CD0000E04B9D1194B00221A66BDE8F88F012203
:102CE000FEF7C2FCEBE70122FEF7BEFCE1E70122A2
:102CF000FEF7BAFCD7E70122FEF7B6FCCDE70122CA
:102D0000FEF7B2FCC3E70122FEF7AEFCB9E70122F1
:102D1000FEF7AAFCAFE7BAF1030FA3D11023A2E795
:102D20004FF0000942F20F765DE7002EA8BF4FF08A
:102D30000009BFF658AF764253E700BF00A0084035
:102D4000684B000067666666444B00001028034627
:102D50000A4608D80748084950F8230051F82310BC
:102D60002AB9FEF781BC00210846002AF9D00122C9
:102D7000FEF77ABCAC4D0000684D00002DE9F84329
:102D8000804601F061F85C4A0746566E5A4B002EA9
:102D9000FBD101221A66FFF743FE584CDFF8609121
:102DA00034E06A07217CA07847D42B07617CE07867
:102DB0004AD4EA06A17C20794DD4AB06E17C607947
:102DC00050D46A06217DA07953D42B06617DE07929
:102DD00056D4EA05A17D207A59D4AB05E17D607A0D
:102DE0005CD46A05217EA07A5FD42B05617EE07AEF
:102DF00062D4EA04A17E207B65D4AB04E17E607BD3
:102E000068D40136072E04F11C046BD0B742CABF48
:102E100018F806300023203B39F81350A17BEA074D
:102E2000207864D4AB07E17B6078BAD50122FEF745
:102E30001BFC6A07217CA078B7D50122FEF714FCA1
:102E40002B07617CE078B4D50122FEF70DFCEA0681
:102E5000A17C2079B1D50122FEF706FCAB06E17C0E
:102E60006079AED50122FEF7FFFB6A06217DA079CD
:102E7000ABD50122FEF7F8FB2B06617DE079A8D5E2
:102E80000122FEF7F1FBEA05A17D207AA5D50122FA
:102E9000FEF7EAFBAB05E17D607AA2D50122FEF7E1
:102EA000E3FB6A05217EA07A9FD50122FEF7DCFBB9
:102EB0002B05617EE07A9CD50122FEF7D5FBEA0462
:102EC000A17E207B99D50122FEF7CEFBAB04E17EEB
:102ED000607B96D501220136FEF7C6FB072E04F172
:102EE0001C0493D1044B00221A66BDE8F88301222A
:102EF000FEF7BAFB96E700BF00A00840684B000051
:102F0000044E000008B505480121FDF73DFFBDE86E
:102F1000084003480121FDF737BF00BF004302000E
:102F200000E204004FF080431A68034822F00102D7
:102F30001A600021FDF728BF00E2040070B5174DAC
:102F400088B001AC06460FCD0FC495E8070084E8B1
:102F500007001349304600F0A9F9124900F064FB5C
:102F600000F0FEFB052106900022012301A88DF848
:102F70000E108DF814208DF81C30FEF765FF4FF011
:102F800080418B684FF08042DB07FAD5906880F073
:102F90000200C0F3400008B070BD00BFBC4E00008E
:102FA0004260D53F96430B3D064880470649074A95
:102FB000074B9A42BEBF51F8040B42F8040BF8E7E6
:102FC000FDF7B6F89D310000204F00000000002002
:102FD000C8000020FEE700BF2A4AD36A03F47053FA
:102FE000B3F5805F2AD0B3F5005F24D0B3F5006F4E
:102FF00011D0D36803F4E063B3F5007F3FD020D94C
:10300000B3F5806F39D0B3F5A06F34D0B3F5407FFE
:1030100025D0002101E01C4B19681A4B1B4A186887
:103020005B68C0F382300130B1FBF0F003F00F03B6
:10303000D84010607047164B1968EEE74FF4004116
:10304000EBE773B1B3F5807FE3D1124B124AD96C31
:10305000124BB1F1985F34BF11461946DDE71049B4
:10306000DBE70C4B0F4AD96C0F4BB1F1985F34BFC3
:1030700011461946D1E70D49CFE70D49CDE70D4976
:10308000CBE700BF00800C405400002098010020D6
:1030900050000020B081E00FC0CF6A0040B564004E
:1030A000809FD50040420F00804F1200003FAB01CF
:1030B000406F4001C0D8A70000487047006CDC0298
:1030C000274AD36A03F47053B3F5805F24D0B3F575
:1030D000005F1ED0B3F5006F11D0D36803F4E06336
:1030E000B3F5007F39D01AD9B3F5806F33D0B3F57B
:1030F000A06F2ED0B3F5407F1FD0002001E0194B08
:103100001868174B1B68C3F382330133B0FBF3F02D
:103110007047154B1868F4E74FF40040F1E773B1BE
:10312000B3F5807FE9D1114B114AD86C114BB0F146
:10313000985F34BF10461846E3E70F48E1E70B4BB2
:103140000E4AD86C0E4BB0F1985F34BF104618464B
:10315000D7E70C48D5E70C48D3E70C48D1E700BFC8
:1031600000800C405400002050000020B081E00F8F
:10317000C0CF6A0040B56400809FD50040420F0078
:10318000804F1200003FAB01406F4001C0D8A70044
:10319000014B1868704700BF54000020704700BF03
:1031A0004FF40040704700BF4FF47A70704700BF83
:1031B000014B1868704700BF500000202B492C4B72
:1031C0004A6C70B542F400524A64D3F82041102092
:1031D00044F00404C3F82041D3F820410A4624F403
:1031E0004074C3F82041D3F8B84024F47064C3F8A5
:1031F000B840D3F8B84044F48064C3F8B8400862DB
:10320000D36A9B06FCD51B4B1B4A18681B4940F030
:1032100001001860DC684FF4602044F08074DC60CA
:103220001160FDF7A9FC00F5D52000F2FC40144B1D
:10323000C608A3FB0626134C134AB60A13494FF0DF
:103240006043013E02254FF480701661C2F8F050D1
:10325000C2F80403C3F8B04FC3F8801ED3F8002EA1
:1032600042F00102C3F8002E70BD00BF00800C4088
:1032700000600040F0ED00E0001000E0FF130140AE
:103280001791650255CEACC5000004E009000100AD
:1032900008B54FF07E63186810B1FFF78FFF01206B
:1032A00008BD00BF80F0004002E000BF81F0004197
:1032B00042001FBF5FEA410392EA030F7FEA226CDC
:1032C0007FEA236C6AD04FEA1262D2EB1363C1BF6C
:1032D000D218414048404140B8BF5B42192B88BFDB
:1032E000704710F0004F40F4000020F07F4018BFFE
:1032F000404211F0004F41F4000121F07F4118BF1E
:10330000494292EA030F3FD0A2F1010241FA03FCC5
:1033100010EB0C00C3F1200301FA03F100F00043AD
:1033200002D5494260EB4000B0F5000F13D3B0F175
:10333000807F06D340084FEA310102F10102FE2AE4
:1033400051D2B1F1004F40EBC25008BF20F0010054
:1033500040EA03007047490040EB000010F4000F02
:10336000A2F10102EDD1B0FA80FCACF1080CB2EB95
:103370000C0200FA0CF0AABF00EBC25052421843F4
:10338000BCBFD0401843704792F0000F81F4000199
:1033900006BF80F400000132013BB5E74FEA41036C
:1033A0007FEA226C18BF7FEA236C21D092EA030FD8
:1033B00004D092F0000F08BF0846704790EA010F52
:1033C0001CBF0020704712F07F4F04D1400028BF7F
:1033D00040F00040704712F100723CBF00F5000061
:1033E000704700F0004343F0FE4040F40000704797
:1033F0007FEA226216BF08467FEA23630146420243
:1034000006BF5FEA412390EA010F40F48000704755
:103410004FF0000304E000BF10F0004348BF4042FB
:103420005FEA000C08BF704743F0964301464FF037
:1034300000001CE050EA010208BF70474FF0000393
:103440000AE000BF50EA010208BF704711F00043D4
:1034500002D5404261EB41015FEA010C02BF8446A4
:103460000146002043F0B64308BFA3F18053A3F503
:103470000003BCFA8CF2083AA3EBC25310DB01FA4A
:1034800002FC634400FA02FCC2F12002BCF1004FCE
:1034900020FA02F243EB020008BF20F0010070475F
:1034A00002F1200201FA02FCC2F1200250EA4C00B3
:1034B00021FA02F243EB020008BF20EADC707047F9
:1034C0004FF0FF0C1CEAD0521EBF1CEAD15392EA07
:1034D0000C0F93EA0C0F6FD01A4480EA010C4002E3
:1034E00018BF5FEA41211ED04FF0006343EA50103D
:1034F00043EA5111A0FB01310CF00040B1F5000F7F
:103500003EBF490041EAD3715B0040EA010062F12D
:103510007F02FD2A1DD8B3F1004F40EBC25008BF17
:1035200020F00100704790F0000F0CF0004C08BF35
:1035300049024CEA502040EA51207F3AC2BFD2F102
:10354000FF0340EAC250704740F400004FF0000310
:10355000013A5DDC12F1190FDCBF00F0004070474A
:10356000C2F10002410021FA02F1C2F1200200FA88
:1035700002FC5FEA310040F1000053EA4C0308BF4F
:1035800020EADC70704792F0000F00F0004C02BFA0
:10359000400010F4000F013AF9D040EA0C0093F01B
:1035A000000F01F0004C02BF490011F4000F013B75
:1035B000F9D041EA0C018FE70CEAD15392EA0C0FE3
:1035C00018BF93EA0C0F0AD030F0004C18BF31F04E
:1035D000004CD8D180EA010000F00040704790F024
:1035E000000F17BF90F0004F084691F0000F91F0C8
:1035F000004F14D092EA0C0F01D142020FD193EA8E
:103600000C0F03D14B0218BF084608D180EA010015
:1036100000F0004040F0FE4040F40000704740F0F1
:10362000FE4040F4400070474FF0FF0C1CEAD052BF
:103630001EBF1CEAD15392EA0C0F93EA0C0F69D01B
:10364000A2EB030280EA010C49024FEA402037D086
:103650004FF0805343EA111143EA10130CF000407D
:103660008B4238BF5B0042F17D024FF4000C8B426D
:1036700024BF5B1A40EA0C00B3EB510F24BFA3EB4D
:10368000510340EA5C00B3EB910F24BFA3EB91031D
:1036900040EA9C00B3EBD10F24BFA3EBD10340EA77
:1036A000DC001B0118BF5FEA1C1CE0D1FD2A3FF6BD
:1036B00050AF8B4240EBC25008BF20F00100704772
:1036C0000CF0004C4CEA50207F32C2BFD2F1FF0315
:1036D00040EAC250704740F400004FF00003013A46
:1036E00037E792F0000F00F0004C02BF400010F4EA
:1036F000000F013AF9D040EA0C0093F0000F01F0FE
:10370000004C02BF490011F4000F013BF9D041EA1F
:103710000C0195E70CEAD15392EA0C0F08D1420252
:103720007FF47DAF93EA0C0F7FF470AF084676E725
:1037300093EA0C0F04D14B023FF44CAF08466EE7FE
:1037400030F0004C18BF31F0004CCAD130F00042CC
:103750007FF45CAF31F000437FF43CAF5FE700BF24
:1037600042000ED2B2F1FE4F0BD34FF09E03B3EBEB
:10377000126209D44FEA002343F0004323FA02F017
:1037800070474FF00000704712F1610F01D1420203
:1037900002D14FF0FF3070474FF00000704700BF7C
:1037A0004BB942B9002908BF002802D04FF0FF31C1
:1037B000084600F03BB882B0EC462DE9005000F01E
:1037C0001DF8DDF804E002B00CBC70472DE9704F25
:1037D000089E14461D468046894600F029F804FBE1
:1037E00001F3A4FB00AB00FB05329344B8EB0A08DD
:1037F00069EB0B09C6E90089BDE8708F2DE9704FB0
:10380000089E14461D468046894600F061F900FB7B
:1038100005F5A0FB04AB04FB0154A344B8EB0A0874
:1038200069EB0B09C6E90089BDE8708F704700BFDE
:1038300000292DE9F00FC0F2A1800024002BC0F276
:103840009880154606460F46002B3FD18A4258D92C
:10385000B2FA82F34BB1C3F1200201FA03F720FA66
:1038600002F29D4000FA03F61743290CB7FBF1F270
:1038700001FB1277A8B200FB02F34FEA164C4CEAA8
:103880000747BB4209D97F1902F1FF3C80F005814F
:10389000BB4240F20281023A2F44FF1AB7FBF1F318
:1038A00001FB137100FB03F0B6B246EA0141884206
:1038B00008D9491903F1FF3780F0F180884240F2BE
:1038C000EE80023B43EA0242002303E08B420AD926
:1038D00000231A461046194614B1404261EB4101DB
:1038E000BDE8F00F7047B3FA83F8B8F1000F40F06D
:1038F00088808B4202D3824200F2E28000230122C0
:10390000E8E712B90123B3FBF2F5B5FA85F2002A14
:103910003AD17F1B280C1FFA85FC0123B7FBF0F17D
:1039200000FB11770CFB01F24FEA164848EA074703
:10393000BA4207D97F1901F1FF3802D2BA4200F228
:10394000C4804146BF1AB7FBF0F200FB12700CFBBB
:1039500002FCB6B246EA0040844507D9401902F19C
:10396000FF3702D2844500F2AE803A4642EA014275
:10397000B0E7E443524263EB430362E7404261EB4A
:1039800041014FF0FF3459E79540C2F1200927FA71
:1039900009F126FA09F99740280CB1FBF0F800FB71
:1039A00018111FFA85FC0CFB08F349EA07094FEAD6
:1039B000194747EA01418B4206FA02F608D949192C
:1039C00008F1FF327AD28B4278D9A8F10208294453
:1039D000C91AB1FBF0F300FB13170CFB03F21FFA3B
:1039E00089F949EA0747BA4207D97F1903F1FF313C
:1039F00060D2BA425ED9023B2F44BF1A43EA084361
:103A00008CE7C8F1200225FA02F103FA08FC27FA34
:103A100002F320FA02F207FA08F741EA0C0C4FEA27
:103A20001C49B3FBF9F109FB11331FFA8CFA0AFBAD
:103A300001FB17433A0C42EA03439B4505FA08F0A1
:103A400008D913EB0C0301F1FF3235D29B4533D972
:103A500002396344CBEB0303B3FBF9F209FB1233E6
:103A60000AFB02FABFB247EA0347BA4508D917EB87
:103A70000C0702F1FF331BD2BA4519D9023A674449
:103A800042EA0145A5FB0001CAEB07078F424FF050
:103A900000030AD305D02A461CE76246FDE63B46F2
:103AA00010E706FA08F68642F5D26A1E002311E7EF
:103AB0001A46E5E70B46A0E71146CBE7904687E7B5
:103AC0004346424606E7023A50E702392F4439E7B7
:103AD0002DE9F00F144605460E46002B43D18A42CD
:103AE00053D9B2FA82F757B1C7F1200620FA06F689
:103AF00001FA07F302FA07F400FA07F51E43210C56
:103B0000B6FBF1F201FB1266A0B200FB02F32F0C30
:103B100047EA0646B34209D9361902F1FF3780F069
:103B2000FD80B34240F2FA80023A2644F61AB6FB10
:103B3000F1F301FB136100FB03F0ADB245EA014173
:103B4000884208D9091903F1FF3680F0E9808842DC
:103B500040F2E680023B43EA024200231046194647
:103B6000BDE8F00F70478B424CD8B3FA83F6002EB5
:103B70004FD18B4202D3824200F2DD80BDE8F00FCC
:103B80000023012210461946704712B90124B4FBE4
:103B9000F2F4B4FA84F2002A40F08280091B260C69
:103BA000A7B20123B1FBF6F006FB101107FB00F2F0
:103BB0004FEA154C4CEA01418A4207D9091900F134
:103BC000FF3C02D28A4200F2C8806046891AB1FBEB
:103BD000F6F206FB121107FB02F7ADB245EA01450A
:103BE000AF4208D92C1902F1FF3180F09B80A74227
:103BF00040F29880023A42EA004210461946BDE877
:103C0000F00F704700231A4610461946BDE8F00F22
:103C10007047C6F1200522FA05F703FA06F421FAE7
:103C200005F301FA06FB20FA05F53C434FEA144878
:103C3000B3FBF8FC08FB1C331FFA84F909FB0CFAF0
:103C400045EA0B0B4FEA1B4545EA03439A4502FA46
:103C500006F204D91B190CF1FF356FD3AC46CAEB41
:103C60000303B3FBF8F508FB153309FB05F91FFA4D
:103C70008BFB4BEA0347B94504D93F1905F1FF33E4
:103C800062D31D4645EA0C4CACFB0223C9EB070787
:103C90009F424FF000054AD346D062462B465DE76F
:103CA0009440C2F1200921FA09FC914020FA09F957
:103CB000260CBCFBF6F806FB18CCA7B207FB08F3F2
:103CC00049EA01094FEA194141EA0C4C634500FAFF
:103CD00002F509D91CEB040C08F1FF323BD2634515
:103CE00039D9A8F10208A444C3EB0C0CBCFBF6F3D1
:103CF00006FB13C107FB03F21FFA89F949EA0141E8
:103D00008A4207D9091903F1FF3022D28A4220D909
:103D1000023B2144891A43EA084343E73A4605E750
:103D2000334618E70A4666E7B0409042B5D20CF138
:103D3000FF32002312E7334632460FE79A458DD90A
:103D4000ACF1020C23448AE7B9459AD9023D2744D5
:103D500098E70346DEE79046C6E70238214435E798
:103D600008B5074B044613B10021AFF30080054BA3
:103D70001868836A03B19847204600F05FFC00BFD3
:103D800000000000DC4E000070B50E4B0E4D00240C
:103D9000ED1AAD101E46AC4204D056F824209047D0
:103DA0000134F8E700F04CFC084D094B0024ED1AF3
:103DB000AD101E46AC4204D056F824209047013482
:103DC000F8E770BDBC000020BC000020C00000204F
:103DD000BC00002002440346934202D003F8011BBA
:103DE000FAE770470CB430B5164B0C1E9DB01D6839
:103DF00004DA8B232B604FF0FF301EE04FF4027388
:103E0000ADF8143014BF04F1FF3323460493079335
:103E10004FF6FF7302900690ADF81630284621AB9E
:103E200002A9209A019300F073F8431CBCBF8B23B6
:103E30002B6014B1029B00221A701DB0BDE8304007
:103E400002B07047B8000020034613F8012B002A87
:103E5000FBD1181A013870472DE9F0478D6881466B
:103E6000AB420C4692461F4643D38B8913F4906FA6
:103E70003DD0266809690222C1EB0608666906EB97
:103E8000460696FBF2F608F101023A44964238BF24
:103E900016465B050FD5314600F022FB054698B16A
:103EA0002169424600F0B4FAA38923F4906343F0F9
:103EB0008003A38113E0324600F066FB054670B92B
:103EC0004846216900F0C8FA0C23C9F80030A389DC
:103ED0004FF0FF3043F04003A381BDE8F087256138
:103EE00066614544C8EB06062560A6603D46AF42C4
:103EF00000D23D462A462068514600F092FAA36857
:103F000000205B1BA36023681D442560BDE8F0878B
:103F10002DE9F0439DB003938B8907461C060D469F
:103F200016460CD50B6953B9402100F0D9FA286028
:103F3000286110B90C233B60C7E040236B6100236C
:103F4000099320238DF8293030238DF82A30334609
:103F50001C4613F8012B1AB9B4EB06090FD002E086
:103F6000252AF5D1F8E73846294632464B46FFF771
:103F700073FF013000F0A480099B4B440993237820
:103F8000002B00F09D8000234FF0FF320493079335
:103F9000059206938DF853301A9304F101094D4EA2
:103FA0004C4630462178052200F024FA09F1010937
:103FB000049B28B1861B0120B04003430493EEE725
:103FC000D90644BF20228DF853201A0744BF2B2264
:103FD0008DF8532022782A2A02D0079B21460EE032
:103FE000039A111D12680391002A01DB079204E075
:103FF000524243F002030792049301340AE00C4654
:1040000022780131303A092A03D80A2000FB032321
:10401000F5E7079323782E2B19D163782A2B09D142
:10402000039B02341A1D1B680392002BB8BF4FF08C
:10403000FF330BE0611C00230C4622780131303A3B
:10404000092A03D80A2000FB0323F5E70593224E33
:1040500021783046032200F0CDF930B1861B402094
:10406000B040049B01340343049321781B4806228B
:10407000661C8DF8281000F0BDF988B1184B33B9D3
:10408000039B073323F007030833039314E003ABC8
:104090000093384604A92A46124BAFF3008007E08C
:1040A00003AB0093384604A92A460E4B00F08EF865
:1040B000B0F1FF3F804603D0099B4344099346E794
:1040C000AB895B0601D4099801E04FF0FF301DB0C9
:1040D000BDE8F083E04E0000E64E0000EA4E00002E
:1040E00000000000593E00002DE9F84315461F4628
:1040F0008A680B6906469A42A8BF13462B6091F85E
:1041000043200C46DDF820800AB101332B60236880
:10411000990602D52B6802332B60236813F0060939
:104120001DD094F843302268003318BF0123920653
:104130001FD5E118302081F843005A1C94F845102F
:104140002244023382F8431013E03046394604F12A
:1041500019020123C047013007D009F10109E268C3
:104160002B68D31A9945F0DBDBE74FF0FF30BDE851
:10417000F8833046394604F14302C0470130F4D099
:1041800023682A6803F00603E168042B08BFC2EB2A
:1041900001052369A2680CBF25EAE57500259A424E
:1041A000C4BFC3EB0203ED184FF00009A9450ADABA
:1041B0003046394604F11A020123C0470130D4D0F9
:1041C00009F10109F2E70020BDE8F8832DE9FF4776
:1041D0000E7E80466E2E0C4691469A460C9D01F14D
:1041E000430000F0A58011D8632E22D009D8002EFC
:1041F00000F0AF80582E40F0BF8081F845607B4AC8
:104200004FE0642E1ED0692E1CD0B5E0732E00F056
:10421000A48009D86F2E2BD0702E40F0AD800B6893
:1042200043F020030B6038E0752E21D0782E34D077
:10423000A2E02B6801F142071A1D1B682A6081F871
:1042400042309DE022682B6812F0800F03D01A1DC7
:104250002A601D6805E05106F9D51A1D2A60B3F9D8
:104260000050002D39DA2D236D4284F8433034E0BC
:1042700022682B6812F0800F03D01A1D2A601D6877
:1042800004E05206F9D51A1D2A601D88237E574A7C
:104290006F2B14BF0A2308231BE07823544A84F8A9
:1042A00045302368296813F0800F01F104062E6061
:1042B00001D00D6802E05F06FBD50D88DE0744BF24
:1042C00043F0200323601DB9236823F020032360FB
:1042D0001023002184F8431001E0444A0A23666851
:1042E000002EA66003DB216821F00401216005B9DE
:1042F0006EB104F14201B5FBF3F603FB1655555DB3
:104300000F4601F801593546002EF4D100E007466A
:10431000082B0AD12368DD0707D5626823699A4212
:1043200003DC302307F8013C013FC01B20612CE077
:1043300009682B6811F0800F626904D0191D29608B
:104340001B681A6005E04906F8D5191D29601B682D
:104350001A8000232361074617E02B681A1D2A6084
:104360001F683846FFF770FD63682061984288BF78
:1043700023612369636005E004F1420784F8426029
:1043800001232361002384F84330CDF800A0404688
:10439000214603AA4B46FFF7A7FE013002D14FF09A
:1043A000FF301FE0404649463A462369D047013076
:1043B000F5D023689B0705D4E068039B9842B8BFFB
:1043C00018460FE00025E268039BD31A9D42F3DAFA
:1043D0004046494604F119020123D0470130DED09E
:1043E0000135F0E704B0BDE8F08700BFF14E0000F2
:1043F000024F000010B5C9B202449042034605D0F6
:104400001C7801308C42F8D1184610BD002010BD38
:1044100010B50023934203D0CC5CC4540133F9E7B8
:1044200010BD814270B501D300230EE08C18A0426C
:10443000FAD28518134613F1FF3305D3514266189B
:10444000F65C2944CE54F6E770BD934203D0CC5CB1
:10445000C4540133F9E770BD30B500293CD051F8A0
:10446000042C0B1F1D49002AB8BF9B180A680C4674
:1044700012B95A600B6030BD93420DD219685818BA
:10448000904203D15A581144426819605A6023601F
:1044900030BD994203D80A4651680029F9D1146801
:1044A00015199D420AD11B682344D0188842136015
:1044B00012D10868034413604B680CE002D90C2346
:1044C000036030BD18681C188C4203D10C68496821
:1044D000204418605960536030BD00BF7C0100204B
:1044E00070B5CD1C25F0030508350C2D38BF0C2503
:1044F000002D06463FDB8D423DD3214B1C681846FC
:104500002146A1B10B685B1B0ED40B2B03D90B60AA
:10451000CC18CD501FE08C4202D1626802601AE0D4
:104520004B6863600C4616E00C464968E9E7154C99
:1045300023681BB9304600F04DF82060294630460C
:1045400000F048F8431C014615D0C41C24F00304B5
:1045500084420AD1256004F10B00231D20F00700DE
:10456000C31A0BD05A42E25070BD3046611A00F0B7
:1045700031F80130EED10C233360002070BD00BF54
:104580007C01002078010020F8B5064614460D464F
:1045900021B91146BDE8F840FFF7A2BF1AB9FFF7ED
:1045A0005BFF2046F8BD00F025F8A0420ED2304651
:1045B0002146FFF795FF074650B129462246FFF7EF
:1045C00027FF30462946FFF747FF01E02846F8BDA0
:1045D0003846F8BD38B5064C00230546084623602A
:1045E00000F012F8431C02D1236803B12B6038BDE0
:1045F0009C01002051F8040C002802DA04390B5801
:104600001844043870470000094A136863B118441D
:104610006946884202D8106018467047054B0C2244
:104620001A604FF0FF307047034B1360EFE700BF95
:10463000800100209C010020A0010020FEE700BFB7
:10464000F8B500BFF8BC08BC9E467047F8B500BF7F
:10465000F8BC08BC9E4670477B213100534C49444E
:104660004552000020202020202020202000000093
:10467000506164203000000050616420310000006F
:10468000506164203200000050616420330000005B
:104690002573000043415053454E534520544F5518
:1046A00043482044454D4F2020000000FF000000FB
:1046B000FF000000FF000000FF000000FF000000FE
:1046C000FF00000000000000090000000A000000D8
:1046D0000B0000000C0000000000000000000001C2
:1046E00000000000000000000000000000000000CA
:1046F00000000000000000000000040002020000B2
:1047000000000000000000000000000000010000A8
:104710000000010001020300000000000000000092
:104720000000000000000000000000000000000089
:104730000000000000000000000000000000000079
:104740000000000000000000000000000000000069
:104750000000000000000000000000000000000059
:104760000000000000000000000000000000000049
:104770000000000000000000000000000000000039
:104780000000000000000000000000000000000029
:104790000000000000000000000000000000000019
:1047A0000000000000000000000000000000000009
:1047B00000000000000000000000000000000000F9
:1047C00000000000000000000000000000000000E9
:1047D00000000000000000000000000000000000D9
:1047E00000000000000000000000000000000000C9
:1047F00000000000000000000000000000000000B9
:1048000000000000000000000000000000000000A8
:104810000000000000000000010101000000000095
:10482000000000000100000001003700000000202F
:104830000E00000000000000010101000000000067
:10484000000000000100000001003700000000200F
:104850000E00000000000000010101000000000047
:1048600000000000010000000100370000000020EF
:104870000E00000000000000010101000000000027
:1048800000000000010000000100370000000020CF
:104890000E0000000000000000000000000000000A
:1048A0000000000000000000000000000000000008
:1048B00000000000000000000000000000000000F8
:1048C00000000000000000000000000000000000E8
:1048D00000000000000000000000000000000000D8
:1048E00000000000000000000000000000000000C8
:1048F00000000000000000000000000000000000B8
:1049000000000000000000000000000000000000A7
:104910000000000000000000000000000700000090
:10492000070700003D00000000000000000000003C
:104930000000000001010101000000000000000073
:104940000000000000000000000000000000000067
:104950000000000000000000000000000000000057
:104960000000000000000000000000000000000047
:104970000000000000000000000000000000000037
:104980000000000000000000000000000000000027
:104990000000000000000000000000000000000017
:1049A0000000000000000000000000000000000007
:1049B00000000000000000000000000000000000F7
:1049C00000000000000000000000000000000000E7
:1049D00000000000000000000000000000000000D7
:1049E00000000000000000000000000000000000C7
:1049F00000000000000000000000000000000000B7
:104A000000000000000000000000000000000000A6
:104A10000000000000000000000000000000000096
:104A20000000000000000000000000000000000086
:104A30000000000000000000000000000101000074
:104A40000000000000000000010000000F0037001F
:104A50000000002000000000000000000101000034
:104A60000000000000000000010000000F003700FF
:104A70000000002000000000000000000101000014
:104A80000000000000000000010000000F003700DF
:104A900000000020000000000000000001010000F4
:104AA0000000000000000000010000000F003700BF
:104AB00000000020000000000000000000000000D6
:104AC00000000000000000000000000000000000E6
:104AD00000000000000000000000000000000000D6
:104AE00000000000000000000000000000000000C6
:104AF00000000000000000000000000000000000B6
:104B000000000000000000000000000000000000A5
:104B10000000000000000000000000000000000095
:104B20000000000000000000000000000000000085
:104B300000000000000000000000000008090A005A
:104B4000010000003F0006005B004F0066006D00A2
:104B50007D0007007F006F0077007C0039005E0059
:104B600079007100400000000101050707030402FD
:104B70000302040605060D0E0E0E0D0D0D0D0E0E94
:104B80000E0E0D0D010105070703040203020406C2
:104B900005060F1010100F0F0F0F101010100F0F31
:104BA00001010507070304020302040605061112AA
:104BB0001212111111111212121211110101050715
:104BC00007030402030204060506131C1C1C13132E
:104BD00013131C1C1C1C1313000105070602030100
:104BE0000302040604051D1E1E1E1D1D1D1D1E1E86
:104BF0001E1E1D1D00010507060203010302040617
:104C000004051F2020201F1F1F1F202020201F1FE2
:104C10000101050707030402030204060506212219
:104C200022222121212122222222212107050201E3
:104C3000030604232323232323230705020103065A
:104C40000424242424242424070502010306042523
:104C500025252525252507050201030604262626E8
:104C600026262626000107020627272727270000D9
:104C7000000000000000131211100F0E0D0C0000B8
:104C800000002125242601010304040203020D0E65
:104C90000D0D0E0D0E0E01010304040203020F1090
:104CA0000F0F100F10100101030404020302111270
:104CB0001111121112120101030404020302131C48
:104CC00013131C131C1C00010203040103021D1E0C
:104CD0001D1D1E1D1E1E00010203040103021F20D4
:104CE0001F1F201F202001010304040203022122B0
:104CF00021212221222205070704040605060E0EA3
:104D00000D0D0E0E0D0D0507070404060506101007
:104D10000F0F10100F0F05070704040605061212E7
:104D200011111212111105070704040605061C1CB7
:104D300013131C1C131305070603040604051E1E8B
:104D40001D1D1E1E1D1D050706030406040520204B
:104D50001F1F20201F1F0507070404060506222227
:104D600021212222212100000C000000200000004F
:104D7000270000000C0000001C0000000C000000D8
:104D80000C0000001E0000002700000022000000B0
:104D9000230000000C0000000C0000000C000000CC
:104DA0001D0000001F00000027000000010000009F
:104DB00000000000030000000200000000000000EE
:104DC00003000000040000000000000005000000D7
:104DD00000000000000000000700000005000000C7
:104DE00006000000070000000700000004000000AB
:104DF00001000000030040000C0000000000000063
:104E00000000000000000011800200000000020607
:104E10000000200039000F00000040150020400471
:104E2000001000223F0006005B044F0466046D047E
:104E30007D0407007F046F0400000000000A0000EA
:104E400080200000FFFF7704790A3900B020790044
:104E500071007D04760406000E00700A3800B60268
:104E6000B6083F0073043F08730C6D0401113E0047
:104E700030223628802A6E040922390080080F006B
:104E800001000800000158107C0458005E045820FE
:104E900071040C0C740404000E00700C38005414DF
:104EA00054045C04730467045004080C78001C006C
:104EB00010201428802A0C0848200000010000005F
:104EC00007000000000000000000000001000000DA
:104ED00027000000010000004300000058000020EF
:104EE000232D302B2000686C4C00656667454647D3
:104EF0000030313233343536373839414243444556
:104F000046003031323334353637383961626364C4
:084F10006566000000000000CE
:084F180018B2FF7F0100000048
:104F2000FEFFFFFF944600000200000001000000A9
:104F3000010000000100000001000000010000006D
:104F4000010000000100000001000000010000005D
:104F5000010000000100000001000000010000004D
:104F6000010000000100000001000000010000003D
:104F700000800000006CDC02000000000000000067
:104F80000000000000000000000000000000000021
:104F90000000000000000000D84E000000000000EB
:104FA0000000000000000000000000000000000001
:104FB00000000000000000000000000000000000F1
:104FC00000000000000000000000000000000000E1
:104FD0000000000000000000580000200101000057
:084FE000DD00000000000000EC
:0400000300002FA921
:00000001FF
