:1000000000000220214800004D4800004D4800003B
:100010004D4800004D4800004D4800004D4800008C
:100020004D4800004D4800004D4800004D4800007C
:100030004D4800004D4800004D4800004D4800006C
:100040004D480000F90200004D4800004D480000F6
:100050004D4800004D4800004D4800004D4800004C
:100060004D4800004D4800004D480000A10200002E
:100070004D4800004D4800004D4800004D4800002C
:100080004D480000C13200004D4800004D480000BE
:100090004D4800004D4800004D4800004D4800000C
:1000A0004D4800004D4800004D4800004D480000FC
:1000B0004D4800004D480000793B00004D480000CD
:1000C0004D4800004D4800004D4800004D480000DC
:1000D0004D4800004D4800004D48000010B5054C4B
:1000E000237833B9044B13B10448AFF300800123E4
:1000F000237010BDC8000020000000004067000011
:1001000008B5064B1BB106480649AFF30080064808
:10011000036813B1054B03B1984708BD0000000008
:1001200040670000CC000020C40000200000000058
:10013000154B002B08BF134B9D46A3F5803A0021B9
:100140008B460F461348144A121A05F09FFA0F4BBC
:10015000002B00D098470E4B002B00D09847002072
:10016000002104000D000D48002802D00C48AFF318
:10017000008005F065FA2000290000F0F7FA05F08C
:100180004BFA00BF00000800000002200000000041
:1001900000000000C8000020A401002000000000B2
:1001A0000000000080B483B000AF0346FB71084B31
:1001B00097F907205209F97901F01F01012000FA8F
:1001C00001F143F822100C37BD465DF8047B7047FF
:1001D00000E100E080B483B000AF0346FB71094B3F
:1001E00097F907205209F97901F01F01012000FA5F
:1001F00001F1603243F822100C37BD465DF8047BF4
:10020000704700BF00E100E080B500AF04F02EFBB6
:1002100080BD00BF80B483B000AF7860044B7A68C3
:10022000C3F81C210C37BD465DF8047B704700BF46
:100230000060004080B584B002AF39600146F971BA
:10024000BA717B71FA79BB7979790091397C019126
:10025000104639683A6801F073FC0837BD4680BD26
:1002600080B582B000AF0C4B1B687B603B461846E4
:1002700002F0A6FC7B681B0E0F2B0AD93B78032BE0
:1002800007D1064B054A126822F0500242F01002D4
:100290001A600837BD4680BDFC81E00FC0800C406D
:1002A00080B500AF4FF40070FFF7B4FF0E4B1B6832
:1002B000591C0E4BA3FB01235A0813465B00134441
:1002C000CA1A094B1A600A4B00221A60064B1B68B7
:1002D000022B03D1074B04221A6003E0054B0122D5
:1002E0001A6000BF80BD00BF90010020ABAAAAAA7F
:1002F000880100209801002080B582B000AF4FF443
:100300008060FFF787FF094B1B687B60084B1B6809
:1003100001337A68B3FBF2F2796801FB02F29A1AB0
:10032000034B1A600837BD4680BD00BF980100200E
:100330008801002080B582B002AF1748012100F08B
:100340003DFE012009210122002301F05FFC012074
:100350000A210122002301F059FC0123009301200E
:10036000092100220123FFF765FF012300930120EB
:100370000A2100220123FFF75DFF0120FFF72AFF7A
:100380000120FFF70FFF0B20FFF724FF0B20FFF7E3
:1003900009FFBD4680BD00BF00D2040080B584B017
:1003A00000AF78607B68B3F1FF3F03D14FF0FF33BC
:1003B000BB6008E07B68DB000F4A82FB0312D210AF
:1003C000DB17D31ABB600023FB600FE0FA68BB6841
:1003D0009A4204DCF868012103F02CFF03E0F8687E
:1003E000002103F027FFFB680133FB60FB68072B4C
:1003F000ECDD1037BD4680BDABAAAA2A80B586B019
:1004000000AF244A07F10C031188927819809A7082
:1004100003F000F87861786903F0A6FF7B69B3F117
:10042000FF3F03D11C4804F0F1F830E03B1D1846B3
:1004300007211A4A05F032F97A6913465B00134422
:10044000DA00D31A164A82FB0312D210DB17D31A32
:100450003B613B69134A82FB03C2DB17D01A39693F
:10046000104B83FB01C2CB17D21A13465B00134417
:10047000CA1A07F11803134413F80C2C07F11803D8
:10048000034403F8142C3B1D184604F0BFF818373A
:10049000BD4680BD3C5F0000285F0000305F00006B
:1004A000ABAAAA2A5655555580B584B000AF2D4B3E
:1004B0001B68032B3AD801A252F823F0CD040000A8
:1004C000E5040000FD040000150500003B1D184672
:1004D0000721254A05F0E2F8002002F05FFF0346FD
:1004E000FB732FE03B1D18460721204A05F0D6F884
:1004F000012002F053FF0346FB7323E03B1D184627
:1005000007211B4A05F0CAF8022002F047FF034604
:10051000FB7317E03B1D18460721164A05F0BEF88D
:10052000032002F03BFF0346FB730BE03B1D184624
:1005300007210D4A05F0B2F8002002F02FFF034614
:10054000FB7300BF3B1D184604F060F8FB7B1846A8
:1005500002F044FF0346184603F006FF1037BD467D
:1005600080BD00BF88010020405F0000485F0000A0
:10057000505F0000585F000080B586B000AF02F009
:1005800049FF7861184B1A687B699A4228D0164B4C
:100590007A691A60786903F0E7FE7B69B3F1FF3F7F
:1005A00001D100237B61114B1B68184605F0A8F8A8
:1005B0000346073B7A6902FB03F20D4BA3FB0213D0
:1005C0005B093B61094B1A683B6913443A1D1046AD
:1005D0000821084A05F062F83B1D184604F016F899
:1005E0001837BD4680BD00BF080000200400002071
:1005F000ABAAAAAA605F000080B584B002AF424BEC
:100600001B78FB7103F0C6F8404803F07FF84048C0
:10061000404902F041FE404B1B78DBB25BB2032B3A
:1006200070D801A252F823F04F0600006D060000BA
:100630003906000055060000012002F063FD03F0BA
:1006400023FE04F0ABF8344B00221A705BE002F09A
:1006500091FF58E0002002F055FD2B4B1B78184607
:1006600003F026FE2C4B01221A704CE002F082FFB0
:1006700002F0D0FE38603B68B3F1FF3F0AD0234B55
:100680001B6800220092184600214FF47A72234B17
:1006900003F0D0F83868FFF781FE04F06FF82048C7
:1006A00004F088F80346002B16D0174B01221A706D
:1006B000154B1B78FA799A420AD0134B1B781846CF
:1006C00003F0F6FD104B1B780120194603F006FFDE
:1006D0000D4B1B78FB7102E00B4B00221A70114B83
:1006E0001B68012B07D0012B02D3022B06D008E098
:1006F000FFF742FF05E0FFF781FE02E0FFF7D4FEBF
:1007000000BF00E000BF86E7E40000208C0100206D
:1007100049070000550700000000002029070000DD
:100720009A9939409001002080B483B000AF78607E
:100730003960044B02221A700C37BD465DF8047B09
:10074000704700BF0000002080B400AFBD465DF8D8
:10075000047B704780B400AF034B03221A70BD4680
:100760005DF8047B704700BF0000002080B500AF3B
:10077000FFF776FD04F0DAF9FFF746FD012002F0FD
:10078000FFFEFFF7D7FDFFF737FF0023184680BDB8
:1007900080B487B000AFF860B9607A60FB6803F19D
:1007A0000473DA00BB6813449B007B617B697A6841
:1007B0001A601C37BD465DF8047B704780B485B075
:1007C00000AFF860B9607A60FB681A68BB68DB4309
:1007D0001A407B681A43FB681A601437BD465DF8FF
:1007E000047B704780B582B000AF786039607A686A
:1007F0001D4B9A4203D07A681C4B9A4200D100BF2D
:100800003B681B78DA073B685B789B0713431A4603
:100810003B685B681B061A433B681B7A1B021A4342
:100820003B685B7A1B011A437B681A603B689B7AC2
:100830001B071A463B68DB7A1B041A433B68DB68DC
:100840001B02134343F0807343F0B0037A68536094
:100850007A683B681B7C104600211A46FFF798FF18
:100860000837BD4680BD00BF0010004000140040A6
:1008700080B584B000AFF860B960FA71BB71FA68F6
:100880000C4B9A4203D0FA680B4B9A4200D100BF3E
:10089000FA68BB79DB00104608211A46FFF78EFF85
:1008A000BB681A02FB791A43FB68DA611037BD4650
:1008B00080BD00BF001000400014004080B487B02D
:1008C00000AFF860B9607A60FB6803F10473DA0086
:1008D000BB6813449B007B617B697A681A601C3794
:1008E000BD465DF8047B704780B485B000AF78608A
:1008F00039607B6803F10473DA003B6813449B00A2
:10090000FB60FB681B6818461437BD465DF8047B26
:10091000704700BF80B485B000AF78607B68002B63
:1009200004D07B68B3F5004F00D800BF7B68B3FAF2
:1009300083F3C3F11F03FB60FB6818461437BD4601
:100940005DF8047B704700BF80B400AF044BDB6CE4
:100950001B0EDBB21846BD465DF8047B704700BF36
:10096000B081E00F80B400AF054BDB6C03F47F0374
:100970001B0CDBB21846BD465DF8047B704700BF18
:10098000B081E00F80B582B000AFFFF7EBFF034608
:100990004A2B04D0792B02D0482B22D023E0144BD1
:1009A0001B699BB203F03F039BB21B02FB80104B01
:1009B0009B699BB203F0F0039AB2FB881343FB8060
:1009C0000B4BDB6903F0F0031B099AB2FB8813435E
:1009D000FB80FB88B3F5017F01D3064B04E0064B97
:1009E00002E0054B00E0002318460837BD4680BDF5
:1009F000D0FF0FE000366E010048E80180B584B0FA
:100A000000AF786039607A683B689A4294BF0023EF
:100A10000123DBB2FB6006481E21FA68FFF74EFF98
:100A200004480821FA68FFF749FF1037BD4680BD2A
:100A300000800C4004800C4080B582B000AF0748B5
:100A40001E21FFF751FF786005480821FFF74CFF92
:100A500038607B6818460837BD4680BD00800C4072
:100A600004800C4080B582B000AF214B5B6903F479
:100A7000E063B3F5007F1CD0B3F5007F05D8002BF1
:100A800025D0B3F5807F1FD02AE0B3F5C06F24D006
:100A9000B3F5E06F1ED0B3F5407F21D1FFF754FFCF
:100AA0000346122B02D9134B7B601CE0124B7B6078
:100AB00019E0FFF749FF0346122B02D90F4B7B6069
:100AC00011E00F4B7B600EE00E4B7B600BE00E4B9A
:100AD0007B6008E00D4B7B6005E00D4B7B6002E026
:100AE00000237B6000BF7B6818460837BD4680BD89
:100AF00000800C40804F120040420F0040B564005F
:100B0000C0CF6A00C0D8A700809FD500406F4001C9
:100B1000003FAB0180B582B000AF0D4800F0A6FBEE
:100B20000346FB70FB78072B05D0082B07D103F099
:100B3000C1FE786006E0FFF795FF786002E00023D1
:100B40007B6000BF7B6818460837BD4680BD00BF8C
:100B500006000C0080B485B000AF7860284BDB6BDA
:100B6000002B0CBF00230123BB72254B41F67132D1
:100B7000DA63234B5B6803F00703FB60FB68012B20
:100B800001D9042B02D10023FB7202E00123FB7286
:100B900000BF7A681B4B9A4207D9FB7A002B01D021
:100BA000052300E00423FB6016E07A68154B9A42A7
:100BB0000BD87A68144B9A4207D9FB7A002B01D0E4
:100BC000032300E00123FB6006E0FB7A002B01D049
:100BD000022300E00023FB60094B094A526822F01F
:100BE0000701FA680A435A60BB7A002B02D0044B13
:100BF0000022DA631437BD465DF8047B704700BFFE
:100C000000000C400048E8010024F40080B500AF6B
:100C100003F046FE03461846FFF79CFF80BD00BF69
:100C200090B585B000AF78600023BB607B68344A24
:100C3000934203D0334A934200D000E000BF78686B
:100C400000F014FB0346FB607B682D4A934203D0FF
:100C50002C4A934206D00CE02B4B9B6A03F0030313
:100C6000FB6006E0284B9B6A03F00C039B08FB60CB
:100C700000BFFB68032B3AD801A252F823F000BF53
:100C8000B70C0000910C0000990C0000A10C0000B2
:100C900003F0A2FEB8602DE003F0B2FEB86029E0D8
:100CA00003F0E4FD0446FFF7C7FE0346013324FAD0
:100CB00003F3BB601EE00023BB607A68104B9A42CE
:100CC00003D07A680F4B9A4210D10F4B9A6A796819
:100CD0000B4B994201D1102300E0142322FA03F3B5
:100CE000002B03D003F082FEB86003E002E0002393
:100CF000BB6000BFBB6818461437BD4690BD00BF3F
:100D00000200180003001A0000800C4080B483B079
:100D100000AF7860094B5B6D03F00103002B00D03E
:100D200006E000BF054B1A6D7B681340002BF9D11C
:100D30000C37BD465DF8047B704700BF00800C4057
:100D400080B582B000AF104800F090FA0346FB7007
:100D5000FB78032B07D0082B09D0022B0BD103F013
:100D60004FFE78600AE003F037FE786006E003F09B
:100D7000A1FD786002E000237B6000BF7B6818461D
:100D80000837BD4680BD00BF07232000B0B584B042
:100D900000AF786039607B681B0903F00F03FB60CC
:100DA000FB68013B062B00F2F68001A252F823F00B
:100DB000CD0D0000970F0000970F0000010E0000FE
:100DC0002B0E00007F0E0000430F00003B68002B3D
:100DD00003D03B68082B00D800BFFFF717FF704B0C
:100DE0006F4A126822F4E0313A68013A92030A43EA
:100DF0001A6003F03BFDB860B868FFF7ABFECBE0CC
:100E00003B68002B04D03B68B3F5007F00D800BFDF
:100E10003868FFF77FFD3860614B614A926822F0C5
:100E20000F013A680A439A60B6E03B68002B04D091
:100E30003B68B3F5007F00D800BFFFF7E7FE03F083
:100E400039FD02463B68B2FBF3F4FFF79BFD034616
:100E500020461946FFF7D2FD3868FFF75BFD386082
:100E60004F4B4F4A526822F00F013A680A435A60CA
:100E700003F0FCFCB860B868FFF76CFE8CE07B68A0
:100E8000484A93421ED0474A934203D8464A934267
:100E900007D055E0454A934225D0454A93423FD07A
:100EA0004EE00420FFF732FF3868FFF733FD38606B
:100EB0003B4B3B4A926E22F0F0013A6812010A4322
:100EC0009A663DE00420FFF721FF3868FFF722FD16
:100ED0003860334B324A926E22F470613A681202E3
:100EE0000A439A662CE03B680F2B03D93B68802BA2
:100EF00000D800BF0420FFF709FF3868FFF70AFD9C
:100F00003860274C264B9B6E23F440551020FFF78A
:100F100001FD03463A68D31A1B032B43A3660FE077
:100F20000420FFF7F3FE3868FFF7F4FC38601C4B31
:100F30001B4A926E22F003013A680A439A6600BF88
:100F40002AE07B681B4A934203D01B4A934210D08D
:100F500020E04020FFF7DAFE3868FFF7DBFC38605E
:100F60000F4B0F4A126F22F003013A680A431A67C7
:100F700010E04020FFF7CAFE3868FFF7CBFC38606E
:100F8000074B074A126F22F030013A6812010A43F8
:100F90001A6700BF00E000BF1037BD46B0BD00BFFC
:100FA00000800C40602612006016100060002400D3
:100FB00060062800700714007017160090B587B0FF
:100FC00000AF78600B46FB7000233B617B681B0A17
:100FD00003F00F03013B092B49D801A252F823F07B
:100FE000251000002B100000091000006F100000F9
:100FF0006F100000311000003B1000006F10000067
:101000006F100000451000001B4B7B611B4800F077
:1010100041F80446FFF7B6FC034620461946FFF7A1
:10102000EDFC12E0164B7B610FE0164B7B610CE090
:10103000154B7B6101233B6107E0144B7B6110235F
:101040003B6102E0124B7B6100BF7B681B0B03F02E
:101050001F03FB603B69002B02D03869FFF756FE87
:10106000FB787869F9681A46FFF728FC00E000BFB2
:101070001C37BD4690BD00BF40800C4000430200BD
:1010800008800C4044800C4058800C4060800C402C
:1010900078800C4090B585B000AF78607B6803F431
:1010A0007813B3F5A01F00F0AB80B3F5A01F1AD8DA
:1010B000B3F5402F00F0BF80B3F5402F08D8B3F54B
:1010C000003F3CD0B3F5802F2DD0002B27D0BEE0C1
:1010D000B3F5801F3CD0B3F5901F47D0B3F5602F18
:1010E00000F0AD80B3E0B3F5001F00F0AC80B3F5C5
:1010F000001F0AD8B3F5C01F25D0B3F5D01F7AD092
:10110000B3F5B01F00F08980A1E0B3F5181F4ED0F1
:10111000B3F5201F62D0B3F5101F35D097E003F070
:10112000C9FBF86096E003F0C5FBF8604C4B9B6888
:1011300003F00F03FA6822FA03F3FB608AE003F07E
:1011400095FBF86086E04748FFF76AFDF86081E0AC
:101150004448FFF765FDF860414B9B6E03F0F003D8
:101160001B09FA6822FA03F3FB6073E03D48FFF7BE
:1011700057FDF8603A4B9B6E03F470631B0AFA68E4
:1011800022FA03F3FB6065E03648FFF749FDF8609B
:10119000334B9B6E03F440531C0B1020FFF7BAFB3C
:1011A00003462344FA6822FA03F3FB6052E02D4819
:1011B000FFF736FDF8602A4B9B6E03F440531B0B80
:1011C000FA6822FA03F3FB60254BDB6F03F0070399
:1011D0000133FA68B2FBF3F3FB603BE02148FFF711
:1011E0001FFDF8601E4B9B6E03F00303FA6822FAA2
:1011F00003F3FB602EE01C48FFF712FDF86029E0C6
:101200001948FFF70DFDF860154B1B6F03F0030342
:10121000FA6822FA03F3FB601CE01348FFF700FDB5
:10122000F8600F4B1B6F03F030031B09FA6822FABA
:1012300003F3FB600EE0FFF76DFCF8600AE0FFF7D8
:1012400011FCF86006E0FFF77BFDF86002E0002388
:10125000FB6000BFFB6818461437BD4690BD00BF59
:1012600000800C400200180003001A0080B485B012
:1012700000AF78600123FB737B6803F00F03BB6052
:10128000BB68013B062B00F2938001A252F823F0C9
:10129000AD120000E31200001F130000B1130000A4
:1012A000B11300005B1300007D130000454BDB6AA7
:1012B00003F47053B3F5805F09D0B3F5005F03D03A
:1012C000B3F5006F06D008E00223FB7308E00323A8
:1012D000FB7305E00423FB7302E00523FB7300BFEF
:1012E00069E0384B9B6A03F00303022B06D0032B03
:1012F00007D0012B08D10323FB730FE00223FB73FC
:101300000CE00623FB7309E02E4B9B6A03F4803349
:10131000002B02D00923FB7300E000BF4BE0294BF8
:101320009B6A03F00C03082B06D00C2B07D0042B70
:1013300008D10323FB730FE00223FB730CE00623A9
:10134000FB7309E01F4B9B6A03F48013002B02D050
:101350000923FB7300E000BF2DE01A4B1B6803F06C
:101360008053002B03D0B3F1805F03D023E0072329
:10137000FB7302E00823FB7300BF1CE0114BDB6A28
:1013800003F46033B3F5803F08D0B3F5003F08D0D5
:10139000B3F5004F08D10823FB7308E00223FB7369
:1013A00005E00323FB7302E00123FB7300BF02E0AF
:1013B0000023FB7300BFFB7B18461437BD465DF866
:1013C000047B704700800C4090B589B000AF786016
:1013D0000B46FB700323FB610323FB7600233B6179
:1013E0007B6803F00F03FB60FB68013B062B00F2F8
:1013F000348101A252F823F01514000001150000F9
:10140000011500005B1600005B160000C915000006
:10141000F3150000FB78023B072B00F2228101A2AA
:1014200052F823F0451400004F1400005914000036
:10143000A31400006316000063160000631600008A
:10144000631600000423FB610023FB7639E00323CD
:10145000FB610123FB7634E00223FB610223FB7670
:10146000FFF790FA03465C1CFFF78CFA0346204610
:101470001946FFF7C3FA03F09DFA02467C4B9A42E5
:1014800006D97C4B7B4A126842F060021A6018E071
:10149000784B784A126822F0600242F020021A600B
:1014A0000FE00123FB610323FB76FFF76BFA034692
:1014B0005C1CFFF767FA034620461946FFF79EFAC1
:1014C00000BFFB7E18460121012200F0F7F8FFF76C
:1014D0009DFB684BFA695A626748FFF7DBFD0446DB
:1014E000FFF750FA034620461946FFF787FA00F047
:1014F0005FFA03F0BBF9B860B868FFF72BFBADE00B
:10150000FB78013B082B00F2AE8001A252F823F0D9
:10151000351500003B1500004B1500006716000054
:10152000671600005B1500006716000067160000D4
:101530007F15000000237B6126E0002001210122AD
:1015400000F0BCF802237B611EE001200121012292
:1015500000F0B4F801237B6116E003F087F9B8606E
:10156000FFF710FA0346B8681946FFF747FA4348F1
:1015700004210122FFF7A2F903237B6104E0002389
:101580007B6101233B6100BFFB68022B0DD1394A0F
:10159000384B9B6A23F4803323F0030379691943A2
:1015A0003B691B040B43936258E0324A314B9B6A00
:1015B00023F4801323F00C037969890019433B69F4
:1015C0001B050B43936249E0FB78072B02D0082BE5
:1015D00007D049E0274B274A126822F080521A6050
:1015E00006E0244B234A126842F080521A6000BF82
:1015F00034E0FB78032B14D0082B22D0022B00D030
:1016000032E000200121012200F058F8194B40225D
:101610005A6200BF174BDB6A03F48033002BF9D00A
:101620001AE001200121012200F048F8114B60224C
:101630005A6200BF0F4BDB6A03F40033002BF9D072
:101640000AE00C4B20225A6200BF0A4BDB6A03F40B
:101650000043002BF9D000BF00E000BFFFF7ECF91A
:1016600002E000BF00E000BF2437BD4690BD00BFD0
:101670000048E80100800C400043020040800C401C
:1016800080B483B000AF78600B4B9B6D03F0080310
:10169000002B00D00BE07B6803F007037B60064B58
:1016A000054AD26F22F007017A680A43DA670C37DD
:1016B000BD465DF8047B704700800C4080B586B065
:1016C00000AF13460246FA710A46BA717B71FB7984
:1016D000042B4AD801A252F823F000BF29170000BA
:1016E0001B170000FF160000F11600000D17000088
:1016F00001233B610223FB6001237B611DE0042386
:101700003B610823FB6003237B6116E010233B61F0
:101710002023FB6005237B610FE040233B61802396
:10172000FB6007237B6108E04FF480733B614FF45B
:101730000073FB6009237B6100BFBB79002B0ED0D7
:101740000C4B3A691A627B79002B0BD000BF0A4818
:101750007969FFF7C9F80346002BF8D002E0054B82
:10176000FA681A6200F024F900E000BF1837BD469D
:1017700080BD00BF00800C402C800C4080B500AFC5
:1017800003F074F880BD00BF80B400AF034B0022AB
:10179000C3F88420BD465DF8047B704700800C4090
:1017A00080B400AF044B45F60E02C3F88420BD465A
:1017B0005DF8047B704700BF00800C4080B582B0AC
:1017C00000AF384BD3F8843003F001037B60FFF7A0
:1017D000E7FF00233B60344B1B6803F001033A68CA
:1017E00013433B60304B1B6803F010033A6813430C
:1017F0003B602D4B1B6803F040033A6813433B608A
:10180000294B1B6803F004033A6813433B60264BE3
:101810001B6803F480733A6813433B60214B3A68BA
:101820001A62214B1B6803F47053B3F5805F06D036
:10183000B3F5005F0ED0B3F5006F16D020E000BF07
:10184000184BDB6A03F08003002BF9D0154B032201
:101850005A6215E000BF134BDB6A03F40073002BE0
:10186000F9D0104B04225A620AE000BF0D4BDB6A2C
:1018700003F00803002BF9D00A4B02225A6200BF82
:10188000094B1B6803F00103002B02D1054B022218
:101890001A627B68002B01D0FFF776FF0837BD4640
:1018A00080BD00BF00800C40E800002080B483B001
:1018B00000AF174B1B699BB203F03F039BB21B02A7
:1018C000FB80134B9B699BB203F0F0039AB2FB8839
:1018D0001343FB800E4BDB6903F0F0031B099AB244
:1018E000FB881343FB80FB88B3F5827F03D3FB881F
:1018F000B3F5017F01D1012300E0002303F00103D0
:10190000DBB218460C37BD465DF8047B704700BF5C
:10191000D0FF0FE080B586B000AF0346FB711F4BD0
:10192000DA6A1F4B1A601F4B1E4A126942F004020A
:101930001A61FFF7BBFF0346FB75FB7D002B11D03F
:10194000194B1A68194B1340FB60174BFA68C3F820
:101950008020154B5B6823F046033B61124B3A69CC
:10196000C3F8842030BFFB7D002B05D00E4BFA68F6
:101970001A600D4B3A695A60FB79002B02D0FFF7D1
:101980001DFF07E0064B1B6803F48063002B01D1A9
:10199000FFF7F4FE1837BD4680BD00BF00800C4045
:1019A000E800002000ED00E000E100E09CF1FD0017
:1019B00080B400AF034BDA6A034B1A60BD465DF892
:1019C000047B704700800C40E800002080B487B0A2
:1019D00000AFF860B9607A60FB6803F10473DA0065
:1019E000BB6813449B007B617B697A681A601C3773
:1019F000BD465DF8047B704780B485B000AFF860E9
:101A0000B9607A60FB681A68BB68DB431A407B6880
:101A10001A43FB681A601437BD465DF8047B7047B3
:101A200080B483B000AF03463960FB71FB79002BB3
:101A30000DD0FB79012B0AD0FB79022B07D0FB7963
:101A4000032B04D0FB79042B01D0FB79052B09482B
:101A5000FA793B68012101FA03F319461346DB00CA
:101A600013449B000344103359600C37BD465DF8A6
:101A7000047B70470060004080B483B000AF034631
:101A80003960FB71FB79002B0DD0FB79012B0AD05B
:101A9000FB79022B07D0FB79032B04D0FB79042BB5
:101AA00001D0FB79052B0948FA793B68012101FA3D
:101AB00003F319461346DB0013449B000344103321
:101AC00019600C37BD465DF8047B7047006000402C
:101AD00090B482B000AF02460B46FA71BB71FB793D
:101AE000002B0ED0FB79012B0BD0FB79022B08D0F9
:101AF000FB79032B05D0FB79042B02D0FB79052B56
:101B000003D1BB79032B00D800BF0C48FA790B4CEA
:101B1000F9790B46DB000B449B0023441B6823F040
:101B20000301BB7919431346DB0013449B000344B4
:101B300019600837BD4690BC704700BF0060004088
:101B400080B586B000AFB9607A600246FA73BB73A5
:101B5000FB7B002B0DD0FB7B012B0AD0FB7B022BE8
:101B600007D0FB7B032B04D0FB7B042B01D0FB7B3A
:101B7000052BBB68072B0ED8BB689B0007229A4039
:101B8000F97BBB689B0001FA03F31A4811461A4619
:101B9000FFF732FF10E0BB68083B7B617B699B006D
:101BA00007229A40F97B7B699B0001FA03F31248F4
:101BB00011461A46FFF720FFBB7B1048B9681A464A
:101BC000FFF704FF97F820300D48B9681A46FFF771
:101BD000FDFE0C4BBA68012101FA02F2C3F81C2188
:101BE00097F824300848B9681A46FFF7EFFE18370F
:101BF000BD4680BD006100400461004008610040B6
:101C00000C610040006000401061004090B585B05C
:101C100000AFB9607B600346FB731346BB73FB7B6D
:101C2000002B0DD0FB7B012B0AD0FB7B022B07D0B6
:101C3000FB7B032B04D0FB7B042B01D0FB7B052B10
:101C4000BB7B002B0DD07B68002B05D0FB7B18469F
:101C5000B968FFF711FF04E0FB7B1846B968FFF78E
:101C6000DFFEBB68072B1DD82B48FA7B2A4CF97B7B
:101C70000B46DB000B449B0023445968BB689B0068
:101C80000F2404FA03F3DB431940BC7BBB689B00C1
:101C900004FA03F319431346DB0013449B00034487
:101CA000596024E01C48FA7B1B4CF97B0B46DB0097
:101CB0000B449B00234408331968BB6803F180433D
:101CC000083B9B000F2404FA03F3DB431940BC7B61
:101CD000BB6803F18043083B9B0004FA03F31943FC
:101CE0001346DB0013449B00034408331960BB7B9D
:101CF000002B0DD17B68002B05D0FB7B1846B96803
:101D0000FFF7BAFE04E0FB7B1846B968FFF788FED0
:101D10001437BD4690BD00BF0060004080B483B062
:101D200000AF0346FB71FB79002B06D0084B084A35
:101D3000126842F001021A6005E0054B044A12687D
:101D400022F001021A600C37BD465DF8047B704733
:101D500000A0084080B487B000AFF860B9607A6036
:101D6000FB6803F10473DA00BB6813449B007B61DA
:101D70007B697A681A601C37BD465DF8047B704742
:101D800080B584B000AF7860184B5B68FB600020C2
:101D9000FFF7C4FFFB6823F4830323F01F03FB60FA
:101DA0007B685B68FA681343FB607B681B7AFA68A0
:101DB0001343FB607B685B7AFA681343FB607B68C4
:101DC000DB68FA681343FB607B681B8AFA6813437D
:101DD000FB60064BFA685A607B681B78002B02D0C8
:101DE0000120FFF79BFF1037BD4680BD00A00840D3
:101DF00080B485B000AF78600D4B5B68FB60FB681A
:101E000023F48033FB607B68002B08D0B3F5803F60
:101E100000D005E0FB6843F48033FB6000E000BFC6
:101E2000034BFA685A601437BD465DF8047B70476F
:101E300000A0084080B483B000AF02460B46FA8091
:101E40007B717B79002B06D0094B094A9168FA888F
:101E50000A439A6006E0064B054A9168FA88D24325
:101E60000A409A600C37BD465DF8047B704700BF9E
:101E700000A0084080B584B000AFF860B960134698
:101E8000FB71FB68072B00F2C38001A252F823F01C
:101E9000B11E0000DD1E0000091F0000351F0000FC
:101EA000611F00008D1F0000B91F0000E51F00002A
:101EB000BB681F2B07DCBA68FB79574811461A46E6
:101EC000FFF748FFA5E0BB68203BBB60BA68FB7921
:101ED000524811461A46FFF73DFF9AE0BB681F2B98
:101EE00007DCBA68FB794E4811461A46FFF732FF05
:101EF0008FE0BB68203BBB60BA68FB79494811465C
:101F00001A46FFF727FF84E0BB681F2B07DCBA687F
:101F1000FB79454811461A46FFF71CFF79E0BB687C
:101F2000203BBB60BA68FB79404811461A46FFF770
:101F300011FF6EE0BB681F2B07DCBA68FB793C48D9
:101F400011461A46FFF706FF63E0BB68203BBB6003
:101F5000BA68FB79374811461A46FFF7FBFE58E08E
:101F6000BB681F2B07DCBA68FB79334811461A4659
:101F7000FFF7F0FE4DE0BB68203BBB60BA68FB7921
:101F80002E4811461A46FFF7E5FE42E0BB681F2BBC
:101F900007DCBA68FB792A4811461A46FFF7DAFED1
:101FA00037E0BB68203BBB60BA68FB792548114627
:101FB0001A46FFF7CFFE2CE0BB681F2B07DCBA6880
:101FC000FB79214811461A46FFF7C4FE21E0BB68A1
:101FD000203BBB60BA68FB791C4811461A46FFF7E4
:101FE000B9FE16E0BB681F2B07DCBA68FB791848FE
:101FF00011461A46FFF7AEFE0BE0BB68203BBB6004
:10200000BA68FB79134811461A46FFF7A3FE00E0B1
:1020100000BF1037BD4680BD40A0084050A008401A
:1020200044A0084054A0084048A0084058A00840D8
:102030004CA008405CA00840CCA00840B4A00840D8
:10204000D0A00840B8A00840D4A00840BCA00840D8
:10205000D8A00840C0A0084080B487B000AFF860A6
:10206000B9607A60FB68072B00F2AC8001A252F8DD
:1020700023F000BF95200000B9200000DD20000003
:1020800001210000252100004D21000075210000E4
:102090009D2100004E4B1B6C7B61BB68DB437A6962
:1020A00013407B61BA687B6813407A6913437B6194
:1020B000474B7A691A6486E0454B5B6C7B61BB6871
:1020C000DB437A6913407B61BA687B6813407A69A5
:1020D00013437B613E4B7A695A6474E03C4B9B6CC2
:1020E0007B61BB68DB437A6913407B61BA687B68BC
:1020F00013407A6913437B61354B7A699A6462E0D5
:10210000334BDB6C7B61BB68DB437A6913407B61DB
:10211000BA687B6813407A6913437B612C4B7A69F8
:10212000DA6450E02A4BD3F8CC307B61BB68DB43E8
:102130007A6913407B61BA687B6813407A691343FC
:102140007B61234B7A69C3F8CC203CE0204BD3F869
:10215000D0307B61BB68DB437A6913407B61BA682E
:102160007B6813407A6913437B61194B7A69C3F822
:10217000D02028E0164BD3F8D4307B61BB68DB431A
:102180007A6913407B61BA687B6813407A691343AC
:102190007B610F4B7A69C3F8D42014E00C4BD3F861
:1021A000D8307B61BB68DB437A6913407B61BA68D6
:1021B0007B6813407A6913437B61054B7A69C3F8E6
:1021C000D82000E000BF1C37BD465DF8047B704797
:1021D00000A0084080B487B000AFF860B9607A60B2
:1021E000FB68072B00F2AC8001A252F823F000BF7D
:1021F0001122000035220000592200007D2200003B
:10220000A1220000C9220000F122000019230000D1
:102210004E4B1B6D7B61BB68DB437A6913407B616E
:10222000BA687B6813407A6913437B61474B7A69CC
:102230001A6586E0454B5B6D7B61BB68DB437A6961
:1022400013407B61BA687B6813407A6913437B61F2
:102250003E4B7A695A6574E03C4B9B6D7B61BB6871
:10226000DB437A6913407B61BA687B6813407A6903
:1022700013437B61354B7A699A6562E0334BDB6DC2
:102280007B61BB68DB437A6913407B61BA687B681A
:1022900013407A6913437B612C4B7A69DA6550E00D
:1022A0002A4BD3F8B4307B61BB68DB437A691340B7
:1022B0007B61BA687B6813407A6913437B61234B67
:1022C0007A69C3F8B4203CE0204BD3F8B8307B6186
:1022D000BB68DB437A6913407B61BA687B68134053
:1022E0007A6913437B61194B7A69C3F8B82028E0F7
:1022F000164BD3F8BC307B61BB68DB437A69134073
:102300007B61BA687B6813407A6913437B610F4B2A
:102310007A69C3F8BC2014E00C4BD3F8C0307B6161
:10232000BB68DB437A6913407B61BA687B68134002
:102330007A6913437B61054B7A69C3F8C02000E0DA
:1023400000BF1C37BD465DF8047B704700A0084005
:1023500080B483B000AF7860064B064A526822F41E
:10236000E0117A680A435A600C37BD465DF8047B79
:10237000704700BF00A0084080B487B000AFF8608D
:10238000B9607A60FB6803F10473DA00BB68134438
:102390009B007B617B697A681A601C37BD465DF8DB
:1023A000047B704780B582B000AF78600B46FB704D
:1023B000FB78002B01D000F0F1FA7B681B7D1846FA
:1023C00000F020F9504B7A68527891007A68927840
:1023D00011437A68926811437A68D26811437A6827
:1023E000D278520211437A681279920211437A68C4
:1023F0005279520311437A689279520411437A68F0
:10240000D279120411437A68527C92050A431A6009
:102410007B681B781846002100F0D6F83A4B7A68A2
:10242000127E11467A68527E920011437A68927E3B
:10243000920111437A68D27E520011437A68127F6A
:10244000120111437A68527F120211437A68927F17
:10245000920211437A68126A11437A6892F8242032
:10246000120511437A6892F82520920511437A6883
:10247000926A0A439A60244B7A68928D11467A6870
:1024800092F83B20920211437A6892F83C20920322
:1024900011437A6892F83D20920411437A6892F8C9
:1024A0003E20920511437A6892F83420520011437D
:1024B0007A6892F83520920011437A6892F83620B3
:1024C000D20011437A6892F83720120111437A68DA
:1024D00092F83820520111437A6892F8392092011B
:1024E00011437A6892F83A20D2010A43DA607B6895
:1024F0001B6B184600F0F4F9034B7A68127C1A61E2
:102500000837BD4680BD00BF00C0084080B588B018
:1025100000AF786039600023FB610123BB613F237A
:102520007B617B68002B03D12548FEF7B3FD786003
:102530003B68002B04D03A687B689A4200D808E0D8
:1025400007E0FB690133FB61FB69012202FA03F337
:10255000BB613B68BA6902FB03F37A68B2FBF3F232
:102560007B6901339A4202D9FB69062BE9D93B68A2
:10257000BA6902FB03F37A68B2FBF3F3013B7B61B8
:10258000104B5B6823F47F2323F4E0633B61FB691A
:102590001A027B691B0313433A6913433B61094BDE
:1025A0003A695A607B690133BA6902FB03F37A68BE
:1025B000B2FBF3F3FB60FB6818462037BD4680BDD5
:1025C0006006280000C0084080B584B000AF024615
:1025D0000B46FA71BB710A4B1B6823F00303FB60C7
:1025E000FB79FA681343FB60054BFA681A60BB7904
:1025F000002B01D000F084F91037BD4680BD00BF2C
:1026000000C0084080B485B000AF0346FB71094BA1
:102610005B6823F44003FB60FB799B05FA68134376
:10262000FB60044BFA685A601437BD465DF8047BC2
:10263000704700BF00C0084080B485B000AF0246BC
:102640000B46FA71BB71FB79002B0FD0012B00D028
:102650001AE0104B5B6823F00303FB60BB79FA6858
:102660001343FB600B4BFA685A600DE0094B5B6843
:1026700023F07003FB60BB791B01FA681343FB6016
:10268000044BFA685A6000BF1437BD465DF8047BFE
:10269000704700BF00C0084080B584B000AF7860CC
:1026A0000023FB600AE0FB685B017A68134418466C
:1026B000F96800F009F8FB680133FB60FB680F2B39
:1026C000F1D91037BD4680BD80B584B000AF7860C9
:1026D00039607B685B68B3F5C03F0BD13B68022B68
:1026E00008D03B68032B05D03B68042B02D03B6825
:1026F000052B00D100BF7B681B7A032B0BD13B68F5
:102700000C2B08D03B680D2B05D03B680E2B02D05C
:102710003B680F2B00D100BF7B681B7A032B0BD1CA
:102720003B68002B08D03B68012B05D03B68022B8F
:1027300002D03B68032B00D100BF394B9A6B3B683A
:102740005B00032101FA03F3DB431340FB607B686A
:102750001B7A1A463B685B0002FA03F3FA681343DC
:10276000FB602F4BFA689A633B68D8B27B68D97BD1
:102770007B681A7C7B685B7C00F05AF828497B6890
:102780005B7B5A047B689B7B9B041A437B689B8A18
:102790001A437B68DB8A1A437B685B681A437B6851
:1027A0005B7ADB041A433B682C331B010B445A60F1
:1027B0001B497B68DA697B689B7A5B041A437B68F8
:1027C0001B7B9B041A437B68DB7ADB041A433B6860
:1027D0001B010B4403F532731A603B68D9B27B6866
:1027E0005A8A7B681B8B084611461A4600F03CF853
:1027F0007B689B780B4839681A46FFF7BDFD7B68FC
:102800005B78094839681A46FFF7B6FD7B681B7884
:10281000064839681A46FFF7AFFD1037BD4680BD40
:1028200000C008404CC0084054C0084018C00840D0
:1028300080B483B000AFF871B9717A713B71094906
:10284000FB79B8797A79920110433A7952030243BD
:102850002C331B010B441A600C37BD465DF8047B1A
:10286000704700BF00C0084080B485B000AF134679
:102870000246FA710A46BA807B80184AFB792C33EB
:102880001B0113445B6823F47F6323F00F03FB6099
:10289000BB88FA681343FB60104AFB792C331B0199
:1028A0001344FA685A600D4AFB791B01134403F57F
:1028B00032731B681B0C1B04FB607B88FA68134394
:1028C000FB60064AFB791B01134403F53273FA6877
:1028D0001A601437BD465DF8047B704700C008409D
:1028E00080B483B000AF7860044B7A6802F00F02C6
:1028F0001A630C37BD465DF8047B704700C0084082
:1029000080B400AF00BF0A4B1B6D03F02003002B07
:10291000F9D1074B01225A6100BF054B1B6D03F033
:102920002003002BF9D1BD465DF8047B704700BF42
:1029300000C0084080B400AF00BF0A4B1B6D03F01D
:102940002003002BF9D1074B02225A6100BF054B2F
:102950001B6D03F02003002BF9D1BD465DF8047B0D
:10296000704700BF00C0084080B400AF00BF0A4BF2
:102970001B6D03F02003002BF9D1074B08225A618D
:1029800000BF054B1B6D03F02003002BF9D1BD46A2
:102990005DF8047B704700BF00C0084080B483B07E
:1029A00000AF374B0022DA64354B364A5A64344B59
:1029B000334AD26842F00102DA6000BF304B1B6D2F
:1029C00003F02003002BF9D12D4B0A225A612C4B26
:1029D00000221A602A4B00229A60294B0022DA60FA
:1029E000274B00221A61264B00229A61244B0022B9
:1029F0009A63234B0022DA63214B00225A6500239D
:102A00007B6018E01E4A7B682C331B0113440022B4
:102A10001A601B4A7B682C331B01134400225A6046
:102A2000174A7B681B01134403F5327300221A60B6
:102A30007B6801337B607B680F2BE3D900237B60CD
:102A40000FE00F4B7A684032002143F832100C4AF5
:102A50007B684033DB00134400225A607B680133FB
:102A60007B607B680F2BECD900BF054B1B6D03F01F
:102A70002003002BF9D10C37BD465DF8047B70476D
:102A800000C00840FFFF7F0080B487B000AFF8604F
:102A9000B9607A60FB6803F10473DA00BB68134421
:102AA0009B007B617B697A681A601C37BD465DF8C4
:102AB000047B704780B485B000AF78607B68002BE2
:102AC00002D0012B04D007E0084B9B68FB6006E0B6
:102AD000064BDB68FB6002E00023FB6000BFFB6885
:102AE00018461437BD465DF8047B70470000084067
:102AF00080B485B000AF786039607B68012B05D861
:102B00003B6803F07F43002B00D100BF7B68002BA4
:102B100002D0012B03D008E0064BFB6002E0064B1D
:102B2000FB6000BFFB683A681A601437BD465DF869
:102B3000047B7047080008400C00084080B582B054
:102B400000AF0346FB71FB79034800211A46FFF7EB
:102B50009BFF0837BD4680BD0000084080B485B0AB
:102B600000AF78607B681B78002B02D00123FB60EC
:102B700001E00023FB607B685B78002B03D0FB68DF
:102B800043F00203FB607B689B78002B03D0FB685B
:102B900043F00403FB60044BFA681A601437BD4627
:102BA0005DF8047B704700BF0000084080B500AFAF
:102BB0000020FFF7C3FF0120FFF7C0FF80BD00BF6B
:102BC00080B485B000AF7860194B5B69DBB203F06D
:102BD0000F03DBB29B00FB73154B1B6903F0C003B3
:102BE0009B09DAB2FB7B1343FB737B68FA7B9A7019
:102BF0000F4B1B69DBB203F03F03DAB27B685A70FC
:102C00000B4B9B69DBB223F00F03FB73084BDB69B3
:102C100003F0F0031B09DAB2FB7B1343FB737B6801
:102C2000FA7B1A701437BD465DF8047B704700BF0D
:102C3000D0FF0FE080B400AF4FF080439B6803F0FB
:102C40000103002B01D0012300E000231846BD46FC
:102C50005DF8047B704700BF80B483B000AF78603C
:102C60004FF080437A689A610C37BD465DF8047B6B
:102C7000704700BF80B582B000AF78607B68DB68CA
:102C8000002B03D07B68DB68012B00D100BF7B6881
:102C90005B68002B04DB7B685B680F2B00DC00BFEC
:102CA0007B681B78002B08D04FF080434FF08042A8
:102CB000126842F080421A6007E04FF080434FF004
:102CC0008042126822F080421A604FF080434FF039
:102CD0008042126822F070621A604FF080434FF019
:102CE000804211687A68526812060A431A607B684B
:102CF0001B7A002B08D04FF080434FF080421268BF
:102D000042F400321A6007E04FF080434FF08042F7
:102D1000126822F400321A607B685B7A002B08D0BC
:102D20004FF080434FF08042126842F480321A60C4
:102D300007E04FF080434FF08042126822F4803267
:102D40001A604FF080434FF08042126822F4E06234
:102D50001A604FF080434FF0804211687A68927A8F
:102D600012020A431A607B68DB7A002B0BD0012B1E
:102D700000D011E04FF080434FF08042126842F0E3
:102D800010021A6008E04FF080434FF08042126852
:102D900022F010021A6000BF4FF080434FF08042D3
:102DA00011687A68D26892000A431A607B685B698E
:102DB000184600F04FF87B681B7E002B08D04FF0C0
:102DC00080434FF08042126842F001021A6007E02F
:102DD0004FF080434FF08042126822F001021A60E7
:102DE0007B681B7C002B11D07B681B7E002B0DD0D9
:102DF00000BFFFF71FFF034683F00103DBB2002B88
:102E0000F7D17B681B7C184600F006F80120FFF71D
:102E100023FF0837BD4680BD80B483B000AF0346B2
:102E2000FB71FB79002B08D04FF080434FF08042BC
:102E3000526842F480725A6007E04FF080434FF0CE
:102E40008042526822F480725A600C37BD465DF8A9
:102E5000047B704780B483B000AF78607B68002B40
:102E600003DD7B683F2B00DC00BF4FF080434FF059
:102E70008042526822F03F017A680A435A600C3758
:102E8000BD465DF8047B704780B483B000AF034655
:102E9000FB71084B97F907205209F97901F01F01DE
:102EA000012000FA01F143F822100C37BD465DF80D
:102EB000047B704700E100E080B500AF01F0D6FC74
:102EC00080BD00BF80B400AF72B6084B1B68B3F181
:102ED000FF3F04D0054B1B685A1C044B1A60034B80
:102EE0001B681846BD465DF8047B7047EC00002067
:102EF00080B483B000AF0C4B1B68002B0DD00A4B85
:102F00001B685A1E084B1A60074B1B687B607B6866
:102F1000002B00D162B67B6800E0002318460C3716
:102F2000BD465DF8047B7047EC00002080B400AF24
:102F3000034B1B6A1846BD465DF8047B704700BF13
:102F400000C0084080B400AF034B9B6A1846BD46E2
:102F50005DF8047B704700BF00C0084080B483B0B8
:102F600000AF7860064B7A6802F00F02A03253F887
:102F7000223018460C37BD465DF8047B704700BF11
:102F800000C0084080B483B000AF7860034B7A681B
:102F90005A640C37BD465DF8047B704700C008409A
:102FA00080B483B000AF7860054B054AD16C7A6875
:102FB0000A43DA640C37BD465DF8047B704700BFF6
:102FC00000C0084080B483B000AF7860054B054A6C
:102FD000D16C7A68D2430A40DA640C37BD465DF89A
:102FE000047B704700C0084080B483B000AF064B3C
:102FF000DB6C7B60044B1A6C7B68134018460C3703
:10300000BD465DF8047B704700C0084080B500AF46
:10301000FFF752FF11200521FEF7D6F912480321D0
:10302000FEF7D2F911480121FEF7CEF9104801212F
:10303000FDF7C4FF0F480121FDF7C0FF0E48012135
:10304000FDF7BCFF0D480121FDF7B8FF0C48012139
:10305000FDF7B4FF0B480121FDF7B0FF094801213E
:10306000FDF794FE80BD00BF0200180003001A00A7
:103070004081040000D204000092040000A2040079
:10308000004302006006280080B500AF0220002146
:10309000FEF71EFD0220082100220023FEF7B6FDE8
:1030A0000220092100220023FEF7B0FD02200A21A0
:1030B00000220023FEF7AAFD02200B21002200239C
:1030C000FEF7A4FD80BD00BF80B500AF0A48002117
:1030D00000220023FDF7CCFB08480021002200233A
:1030E000FDF7C6FB04480649FDF77CFB034804498D
:1030F000FDF778FB80BD00BF0010004000140040C9
:10310000A05F000090B585B000AF0346FB715B4B3C
:103110001B78002B03D05A480121FFF743F9FB79B4
:10312000002B37D0FFF706FC00BFFFF7FFFE03467A
:1031300003F01003002BF8D1FFF716FC0020042148
:10314000FFF7E4F900200021FFF776FA4D48FFF77A
:10315000A3FA4D4B1B88082037211A46FFF784FB42
:10316000494B5B88092037211A46FFF77DFB464B08
:103170009B880A2037211A46FFF776FB424BDB88F3
:103180000B2037211A46FFF76FFB4FF48030FFF713
:1031900019FF1EE0FFF7CEFB00BFFFF7C7FE034697
:1031A00003F01003002BF8D14FF48030FFF7EAFE54
:1031B000FFF7DAFB00204021FFF7A8F900200321E8
:1031C000FFF73AFA3148FFF767FA4FF48030FFF71C
:1031D000E7FE1120FFF758FEFFF792FB274B1B7805
:1031E000002B47D0254B00221A7000BF284B1B6ACA
:1031F00003F00203002BF9D00023FB730023BB7301
:1032000019E0BB7B234AD35C002B11D0FB7B032B43
:103210000BD8FC7BBB7B1846FFF7A0FE03469BB296
:10322000013B9AB2184B23F81420FB7B0133FB734C
:10323000BB7B0133BB73BB7B0F2BE2D9124B1B88CB
:10324000082037211A46FFF70FFB0F4B5B88092038
:1032500037211A46FFF708FB0B4B9B880A203721C2
:103260001A46FFF701FB084BDB880B2037211A4673
:10327000FFF7FAFA1437BD4690BD00BF4C0000209E
:10328000B45F0000F45F00003C010020F461000026
:1032900000C00840645F000080B483B000AF786075
:1032A0003960054B7A681A60044B3A681A600C372B
:1032B000BD465DF8047B70473001002034010020DA
:1032C00080B582B000AFFFF78FFE034603F4803372
:1032D000002B42D04FF48030FFF754FE294B0022E0
:1032E0001A702EE0274B1B78DBB2274AD35C83F0A1
:1032F0000103DBB2002B00D01CE0FFF723FE786057
:10330000204B1B78DBB21A46204B796843F8221019
:103310001C4B1B78DBB21A461D4B53F822207B68EE
:103320009A4207D2174B1B78DBB21A46184B7968C2
:1033300043F82210134B1B78DBB20133DAB2114B86
:103340001A70104B1B78DBB20F2BCBD9114B1B68BB
:10335000002B02D00F4B1B689847FFF745FE034632
:1033600003F47063002B0AD04FF47060FFF70AFE7D
:10337000094B1B68002B02D0074B1B689847083786
:10338000BD4680BD38010020645F0000F0000020D1
:103390000C000020300100203401002080B485B0F2
:1033A00000AF0346FB71FB79012B06D0022B07D03F
:1033B000002B08D10823FB7308E00923FB7305E009
:1033C0000A23FB7302E00B23FB7300BFFB7B184651
:1033D0001437BD465DF8047B704700BF80B485B0EC
:1033E00000AF0346FB71FA79084B53F82230FB60BB
:1033F000FA79074B53F822301A02FB68B2FBF3F359
:1034000018461437BD465DF8047B70470C00002059
:10341000F0000020B0B491B000AF4FF0FF33BB63B9
:10342000EC237B634F4B07F118041D460FCD0FC4EF
:1034300095E8030084E803004B4B3C1D1D460FCD6F
:103440000FC42B6823600123FB6344E0FB6B9B00EC
:1034500007F14000034453F83C3C5A1E434B53F8D9
:1034600022301A02FB6B9B0007F140010B4443F82A
:10347000282CFB6B9B0007F14002134453F8282CC7
:10348000FB6B9B0007F14000034453F83C3C591E82
:10349000374B53F82130B2FBF3F2FB6B9B0007F183
:1034A00040010B4443F8282CFB6B9B0007F14002C2
:1034B000134453F8282C7B6B9A4209D2FB6B9B0078
:1034C00007F14000034453F8283C7B63FB6BBB636C
:1034D000FB6B0133FB63FB6B042BB7DDBB6BB3F101
:1034E000FF3F02D14FF0FF3336E0BB6B013B1B01C6
:1034F0003B633A6BBB6B013B9B0007F140010B4404
:1035000053F8283CC3F58073D900BB6B9B0007F1CF
:103510004000034453F8283CC3F58073B1FBF3F338
:10352000D31A3B63BB6B01339B0007F140010B4493
:1035300053F8283CC3F58073DA00BB6B9B0007F19E
:103540004000034453F8283CC3F58073B2FBF3F208
:103550003B6B13443B633B6B18464437BD46B0BCE2
:10356000704700BF745F00008C5F0000F000002017
:103570000C00002080B500AF0120FEF7CBF980BD24
:1035800080B582B000AF0346FB71FFF79BFCFFF7ED
:103590003DFDFFF779FDFFF797FDFB791846FFF733
:1035A000B1FDFFF7A5FC0837BD4680BD80B483B0F0
:1035B00000AF0346FB71084B97F907205209F979D0
:1035C00001F01F01012000FA01F143F822100C372D
:1035D000BD465DF8047B704700E100E080B483B035
:1035E00000AF0346FB71094B97F907205209F9799F
:1035F00001F01F01012000FA01F1603243F82210AE
:103600000C37BD465DF8047B704700BF00E100E069
:1036100080B400AF72B6084B1B68B3F1FF3F04D013
:10362000054B1B685A1C044B1A60034B1B68184659
:10363000BD465DF8047B7047EC00002080B483B089
:1036400000AF0C4B1B68002B0DD00A4B1B685A1E99
:10365000084B1A60074B1B687B607B68002B00D10E
:1036600062B67B6800E0002318460C37BD465DF863
:10367000047B7047EC00002080B400AF034B5B6814
:103680001846BD465DF8047B704700BF0000084047
:1036900080B483B000AF7860034B7A689A610C37CE
:1036A000BD465DF8047B70470000084080B483B0DD
:1036B00000AF7860054B054AD1697A68D2430A4069
:1036C000DA610C37BD465DF8047B704700000840A6
:1036D00080B483B000AF7860054B054AD1697A6841
:1036E0000A43DA610C37BD465DF8047B704700BFC2
:1036F0000000084080B400AF034B1B691846BD466C
:103700005DF8047B704700BF0000084080B584B0BE
:1037100000AF78600023FB600023BB60FFF778FFF9
:1037200002E0FB680133FB60FB68002B0ADC1649F2
:10373000FA6813469B001344DB000B4418339B7953
:10374000002BEED1FB68012B02D1104BBB6014E0C3
:103750007B68002B0FD00C49FA6813469B0013447A
:10376000DB000B44183301229A71FA687B681A60F7
:103770000023BB6001E0064BBB60FFF75FFFBB6847
:1037800018461037BD4680BD48010020011000F0EA
:10379000041000F080B500AF1D4B1B78002B01D04A
:1037A000002332E01A4B01221A701A480121FDF75A
:1037B00005FC19480221FDF707FE18480821FDF70E
:1037C000E5FA16480121FDF7F9FB1548FFF7C6F9A0
:1037D0000720FFF76BFF0720FFF75AFFFFF7E6F917
:1037E0001E20FFF7FBFE1E20FFF7E0FE0D48002124
:1037F000282201F04BFF0C4B00221A700B4B0022C9
:103800001A700B4B00221A600023184680BD00BFBF
:103810007A01002000430200020018006016100028
:10382000F4630000480100207801002079010020A5
:1038300074010020B0B58EB000AFF8607A603B60D4
:103840000B46FB720023FB62FB68002B01D08B4B05
:1038500086E1FFF7DDFE8A49FA6813469B001344B0
:10386000DB000B4418339B7983F00103DBB2002BA0
:1038700003D0FFF7E3FE834B72E17B68002B0AD194
:103880003B68002B03D03B68F868B96C9847FFF79A
:10389000D5FE002364E1FFF7EFFE38637849FA684C
:1038A00013469B001344DB000B4418333A681A603C
:1038B0007B681A464FF00003DD0345EA5245D40306
:1038C00014F57A6245F10003104619464FF4FA5296
:1038D0004FF0000301F0BCFB02460B4610461946B0
:1038E000674CFA6813469B001344DB0023440833FB
:1038F000C3E90001FB7A012B28D17B684FF47A726F
:1039000002FB03F15E48FA6813469B001344DB0098
:1039100003440833D3E900231346F42202FB03F3E4
:10392000CB1A19465648FA6813469B001344DB002D
:103930000344103319605249FA6813469B0013443C
:10394000DB000B4410337A225A6017E04C49FA68C6
:1039500013469B001344DB000B440833D3E90023D8
:1039600012F1FF3043F1FF31454CFA6813469B00DA
:103970001344DB0023440833C3E900014049FA68DB
:1039800013469B001344DB000B440833D3E90023A8
:10399000501C43F100013A4CFA6813469B00134453
:1039A000DB002344C3E900013549FA6813469B0054
:1039B0001344DB000B44183301221A713049FA68B2
:1039C00013469B001344DB000B441833FA7ADA7178
:1039D0002B49FA6813469B001344DB000B44203349
:1039E000BA6C1A60284B1B78002B03D0FFF726FE19
:1039F0000023B5E0254B1B68B3F1FF3F04D0234BF8
:103A00001B685A1C214B1A60214B1B7883F0010361
:103A1000DBB2002B42D03B6B23F07F421D4B1A6080
:103A20000220FFF735FE1649FA6813469B0013443F
:103A3000DB000B44D3E90023C7E90823164BFB61E5
:103A4000FB691A464FF00003D7E90801994208BF05
:103A5000904201D202460B461346BB613A6BBB69EA
:103A6000134423F07F4300201946FFF741F802205A
:103A7000FFF72EFE064B01221A7065E0021000F0DF
:103A800048010020031000F078010020740100209C
:103A900079010020700100209BFFFF00324B1B6862
:103AA000012B51D13149FA6813469B001344DB00C6
:103AB0000B44183300221A710220FFF7F7FD3B6B0D
:103AC0001A022B4B1B681B02D31A1B0A7B637A6BEF
:103AD0006FF07F439A4201D100237B63786B00F043
:103AE0009DF800F0EFF9FB6A002B09D11F49FA6835
:103AF00013469B001344DB000B44183301221A7158
:103B0000FB6A0133FB62386B00F00EFAFFF7B4FD7D
:103B100038633B6B1A02164B1B681B02D31A1B0A35
:103B20007B630020FEF7C6FF03461A02104B1B689A
:103B30001B02D31A1B0A7B610E4B1B78002B03D090
:103B40007A6B7B699A42B7D8074B1B68002B04D06D
:103B5000054B1B685A1E044B1A60FFF76FFD0023CC
:103B600018463837BD46B0BD74010020480100201A
:103B7000700100207901002080B584B000AFFFF70C
:103B800047FDFFF7B7FDB860BB6803F00203002BE9
:103B900039D01F4B01221A70FFF76EFDF86002202A
:103BA000FFF784FDFB681A021A4B1B681B02D31A2D
:103BB0001B0A7B60786800F031F800F083F9F86840
:103BC00000F0B2F9FFF758FDF860FB681A02114BDC
:103BD0001B681B02D31A1B0A7B600020FEF76AFFDA
:103BE00003461A020B4B1B681B02D31A1B0A3B60CD
:103BF000094B1B78002B03D07A683B689A42CED8D9
:103C0000034B00221A70FFF719FD1037BD4680BD27
:103C100078010020700100207901002090B484B068
:103C200000AF78600023FB6041E1A549FA681346C4
:103C30009B001344DB000B44183300225A71A04947
:103C4000FA6813469B001344DB000B4418331B79BE
:103C5000002B00F029819A49FA6813469B0013440F
:103C6000DB000B44D3E90023796808464FF00001DC
:103C7000994208BF904219D29149FA6813469B00B5
:103C80001344DB000B44D3E900017B681A464FF074
:103C90000003801A61EB0301894CFA6813469B000C
:103CA0001344DB002344C3E90001FDE08449FA68C2
:103CB00013469B001344DB000B441833DB79002BC5
:103CC0000AD17F49FA6813469B001344DB000B447A
:103CD000183300221A71D2E07949FA6813469B0022
:103CE0001344DB000B440833D3E900017B681A4618
:103CF0004FF00003801A61EB0301714CFA68134620
:103D00009B001344DB002344D3E90023801841EBDC
:103D100003016B4CFA6813469B001344DB002344F9
:103D2000C3E900016649FA6813469B001344DB00AF
:103D30000B4410331B68002B50DD6149FA681346B1
:103D40009B001344DB000B44103359685C48FA684D
:103D500013469B001344DB00034410331B681944D3
:103D60005748FA6813469B001344DB0003441033A2
:103D700059605349FA6813469B001344DB000B4417
:103D800010335B68F32B7AD94D49FA6813469B00D0
:103D90001344DB000B44D3E90023501C43F1000122
:103DA000474CFA6813469B001344DB002344C3E9E5
:103DB00000014349FA6813469B001344DB000B449F
:103DC00010335B68A3F1F4013D48FA6813469B0089
:103DD0001344DB0003441033596050E03849FA685B
:103DE00013469B001344DB000B44103359683448DE
:103DF000FA6813469B001344DB00034410331B682E
:103E0000C91A2F48FA6813469B001344DB00034489
:103E1000103359602A49FA6813469B001344DB00AB
:103E20000B4410335B68F32B29D92549FA681346F4
:103E30009B001344DB000B44D3E9002312F1FF3055
:103E400043F1FF311E4CFA6813469B001344DB001C
:103E50002344C3E900011A49FA6813469B0013443E
:103E6000DB000B4410335B68A3F1F4011448FA68DB
:103E700013469B001344DB00034410335960104980
:103E8000FA6813469B001344DB000B4418331B688D
:103E9000002B09D00A49FA6813469B001344DB0043
:103EA0000B44183301225A71FB680133FB60FB6835
:103EB000002B7FF7BAAE1037BD4690BC704700BFED
:103EC0004801002090B583B000AF00237B6023E061
:103ED00014497A6813469B001344DB000B441833E3
:103EE0005B79002B15D00F497A6813469B00134469
:103EF000DB000B4418331C6879680A487A6813465B
:103F00009B001344DB00034420331B68084619461A
:103F1000A0477B6801337B607B68002BD8DD0C37C2
:103F2000BD4690BD4801002080B58AB000AF7860E2
:103F30004FF0FF324FF0FF33C7E9062300237B62C7
:103F400027E037497A6A13469B001344DB000B4491
:103F500018331B79002B19D031497A6A13469B001C
:103F60001344DB000B44D3E90001D7E9062399424F
:103F700008BF90420AD22A497A6A13469B0013442A
:103F8000DB000B44D3E90023C7E906237B6A013336
:103F90007B627B6A002BD4DD224B00221A70D7E9AA
:103FA0000623B3F1FF3F08BFB2F1FF3F35D0D7E999
:103FB0000623C7E904231C4BFB60FB681A464FF03D
:103FC0000003D7E90401994208BF904201D202469A
:103FD0000B46C7E90623154B1B7883F00103DBB2C0
:103FE000002B05D07B6823F07F42114B1A6002E062
:103FF0000F4B7A681A600220FFF74AFBBA697B68A8
:10400000134423F07F4300201946FEF771FD054B52
:1040100001221A700220FFF75BFB2837BD4680BDE6
:1040200048010020790100209BFFFF00780100205B
:104030007001002080B483B000AF0346FB71FB79B0
:10404000002B06D0084B084A126842F001021A60A1
:1040500005E0054B044A126822F001021A600C3791
:10406000BD465DF8047B704700A0084080B483B073
:1040700000AF0346FB71FB79002B03D0054B0122F7
:104080001A6602E0034B00221A660C37BD465DF843
:10409000047B704700A0084080B483B000AF786014
:1040A00000BF054B5A6E7B681340002BF9D10C37CB
:1040B000BD465DF8047B704700A0084080B483B023
:1040C00000AF7860054B054A916A7A68D2430A408E
:1040D0009A620C37BD465DF8047B704700A008402B
:1040E00080B500AF002028490022FDF7B5FF012070
:1040F00025490022FDF7B0FF022023490022FDF7E9
:10410000ABFF032020490022FDF7A6FF04201E4933
:104110000022FDF7A1FF05201B490022FDF79CFFAF
:10412000062019490022FDF797FF072016490022B3
:10413000FDF792FF0020FF210022FEF74BF801203F
:10414000FF210022FEF746F80220FF210022FEF7A1
:1041500041F80320FF210022FEF73CF80420FF2154
:104160000022FEF737F80520FF210022FEF732F883
:104170000620FF210022FEF72DF80720FF21002254
:10418000FEF728F880BD00BF00F00FF080B500AF4B
:10419000072026490022FDF75FFF06202449002260
:1041A000FDF75AFF052022490022FDF755FF0420A4
:1041B0001F490022FDF750FF03201D490022FDF793
:1041C0004BFF02201A490022FDF746FF0120184943
:1041D0000022FDF741FF00204FF020410022FDF7B3
:1041E0003BFF072007210022FDF7F4FF06200721EF
:1041F0000022FDF7EFFF052007210022FDF7EAFF6F
:10420000042007210022FDF7E5FF032007210022FB
:10421000FDF7E0FF022007210022FDF7DBFF012070
:1042200007210022FDF7D6FF00BF80BD00E00F5040
:1042300000E00FF080B584B000AF78603960114ABB
:104240007B68134403F580739B79FB600D4A7B68A0
:10425000134403F584739B79BB603B68002B07D044
:10426000FA68BB68104619460122FDF703FE06E016
:10427000FA68BB68104619460022FDF7FBFD1037AF
:10428000BD4680BDF863000080B500AF0020FFF799
:10429000D1FE0120FFF700FF03480021FCF78EFE4E
:1042A000024B0022DA6780BD0036260000800C40F9
:1042B00080B582B000AF0346FB7125480121FCF7B1
:1042C0007DFE24480321FDF77FF823484021FCF7B9
:1042D0005DFD0120FDF7D4F920480121FCF76EFEB9
:1042E0004FF0FF30FFF7EAFE1D48FDF749FD0820BB
:1042F0000121FDF79FFD10200121FDF79BFD80208E
:104300000121FDF797FD4FF480700121FDF792FD2B
:104310004FF400700121FDF78DFDFB79002B0DD0CE
:104320004FF44020FEF714F84FF48030FDF760FDA5
:104330000C4B0C4AD26F42F00802DA67FFF7D0FE4E
:104340004FF0FF30FFF7A8FE0837BD4680BD00BF25
:10435000004302000200180060002400003626001E
:10436000D466000000800C4080B58AB000AF786051
:104370007A6842F20E739A4202DD42F20F737B605A
:104380007B6813F57A7F01DC3C4B7B607B68002BFC
:1043900006DA786801F03CF978600123BB6101E03E
:1043A0000023BB614FF0FF30FFF776FE0120FFF7DF
:1043B0005DFE00F06BF80123FB6100233B6254E0DB
:1043C0007A68FB6992FBF3F12D4B83FB01239A1072
:1043D000CB17D21A13469B0013445B00CA1A13462C
:1043E000FB82BB69012B04D13B6A032B01D1102353
:1043F000FB82FA8A234B33F81230BB8200237B62A4
:1044000027E021493A6A1346DB009B1A5B00CA1871
:104410007B6A1344C033DB7A3B611B493A6A13461B
:10442000DB009B1A5B00CA187B6A1344C0331B79FC
:10443000FB60BA8A7B6A42FA03F303F00103002BA4
:1044400004D0F86839690122FDF714FD7B6A013355
:104450007B627B6A062BD4DDFA6913469B0013440A
:104460005B00FB613B6A01333B623B6A032BA7DDC8
:104470000020FFF7FBFD2837BD4680BD19FCFFFF7C
:1044800067666666B0660000F863000080B500AF3E
:10449000012078210022FDF79DFE022078210022D4
:1044A000FDF798FE032078210022FDF793FE0420FB
:1044B00078210022FDF78EFE052078210022FDF7ED
:1044C00089FE062078210022FDF784FE072078214E
:1044D0000022FDF77FFE00BF80BD00BF80B584B025
:1044E00000AF03463960FB710023FB600023BB6013
:1044F000FB79102B79D801A252F823F04145000036
:104500004B450000554500005F450000694500002F
:10451000734500007D45000087450000914500007F
:104520009B450000A5450000AF450000B9450000CF
:10453000C3450000CD450000D7450000E14500001F
:104540000123FB600C23BB604FE00023FB602023B2
:10455000BB604AE00323FB602723BB6045E00223E6
:10456000FB600C23BB6040E00023FB601C23BB60AE
:104570003BE00323FB600C23BB6036E00423FB60BD
:104580000C23BB6031E00023FB601E23BB602CE0EA
:104590000523FB602723BB6027E00023FB60222369
:1045A000BB6022E00023FB602323BB601DE00723E8
:1045B000FB600C23BB6018E00523FB600C23BB6091
:1045C00013E00623FB600C23BB600EE00723FB60B7
:1045D0001D23BB6009E00723FB601F23BB6004E0D1
:1045E0000423FB602723BB6000BF3B68002B05D082
:1045F000F868B9680122FDF73DFC04E0F868B96885
:104600000022FDF737FC1037BD4680BD80B58AB06B
:1046100000AF7860786801F073F80346BB6100234F
:104620003B624FF0FF30FFF737FD0120FFF71EFD23
:10463000FFF7ACFD00233B6246E03A6ABB699A4251
:1046400003DA7B681B787B6201E020237B627B6A54
:10465000203B7B62214B7A6A33F81230FB820023C5
:10466000FB6128E01E493A6A1346DB009B1A9B0057
:10467000CA18FB69134408339B793B6118493A6AAD
:104680001346DB009B1A9B00FA6913440B441B780A
:10469000FB60FA8AFB6942FA03F303F00103002B83
:1046A00006D0FA683B69104619460122FDF7E2FB85
:1046B000FB690133FB61FB690D2BD3DD7B680133A3
:1046C0007B603B6A01333B623B6A062BB5DD002011
:1046D000FFF7CCFC2837BD4680BD00BFF865000061
:1046E000F863000080B400AF4FF080434FF0804289
:1046F000126822F001021A60BD465DF8047B704723
:1047000080B582B000AF78607868084900F026FA7A
:1047100003461846064900F0DFFB0346184600F042
:1047200077FC034618460837BD4680BD4260D53F3A
:1047300096430B3D80B400AF4FF080439B6803F07D
:104740000203002B01D0012300E000231846BD46E0
:104750005DF8047B704700BF80B400AF4FF080432A
:104760009B6803F00103002B01D0012300E000232C
:104770001846BD465DF8047B704700BF80B500AFAA
:1047800004480121FCF71AFC03480121FCF716FC40
:1047900080BD00BF0043020000E2040080B500AF0E
:1047A000FFF7A0FF02480021FCF708FC80BD00BF16
:1047B00000E20400B0B58AB000AF7860174B07F193
:1047C0000C041D460FCD0FC495E8070084E80700D0
:1047D0007868FFF795FF03463B620523BB7500230E
:1047E0003B77012387F8243007F10C031846FEF7C6
:1047F00041FA00BFFFF7B0FF034683F00103DBB2CD
:10480000002BF7D1FFF796FF0346002B01D00023C2
:1048100000E0012318462837BD46B0BDE866000019
:10482000064880470649074A074B9A42BEBF51F8DF
:10483000040B42F8040BF8E7FBF77AFCCD490000C3
:104840004C67000000000020C8000020FEE700BF09
:1048500080B400AF044BDB6C1B0EDBB21846BD46C8
:104860005DF8047B704700BFB081E00F80B582B077
:1048700000AF00F01FF87860074B5B6803F00F0390
:104880007A6822FA03F37B60044B7A681A607B68CB
:1048900018460837BD4680BD00800C409C010020B2
:1048A00080B400AF024B1846BD465DF8047B7047EC
:1048B000006CDC0280B582B000AF334BDB6A03F4DE
:1048C0007053B3F5805F0AD0B3F5005F03D0B3F542
:1048D000006F08D00BE02D4B1B687B6047E04FF466
:1048E00000437B6043E02A4B1B687B603FE0264B24
:1048F000DB6803F4E063B3F5007F1BD0B3F5007F02
:1049000005D8002B24D0B3F5807F16D02BE0B3F56B
:10491000806F09D0B3F5A06F03D0B3F5407F06D008
:1049200021E01C4B7B6021E01B4B7B601EE01B4B9E
:104930007B601BE01A4B7B6018E0FFF789FF0346A2
:10494000122B02D9174B7B6010E0174B7B600DE0F8
:10495000FFF77EFF0346122B02D9144B7B6005E064
:10496000134B7B6002E000237B6000BF00BF064B5F
:104970001B6803F4E0339B0B01337A68B2FBF3F35B
:1049800018460837BD4680BD00800C40540000200A
:1049900050000020003FAB01406F4001809FD500D8
:1049A000C0D8A70040B56400C0CF6A00804F120095
:1049B00040420F0080B400AF034B1B681846BD4651
:1049C0005DF8047B704700BF5000002080B400AF4A
:1049D000BD465DF8047B704780B400AF4FF40043E0
:1049E0001846BD465DF8047B704700BF80B400AF39
:1049F0004FF47A731846BD465DF8047B704700BFDC
:104A000080B400AF034B1B681846BD465DF8047BBD
:104A1000704700BF5400002080B582B000AF3A4B11
:104A2000394A526C42F400525A64384B374AD2F831
:104A3000202142F00402C3F82021344B334AD2F83B
:104A4000202122F44072C3F82021304B2F4AD2F8A3
:104A5000B82022F47062C3F8B8202C4B2B4AD2F84D
:104A6000B82042F48062C3F8B820274B10221A62A3
:104A700000BF254BDB6A03F02003002BF9D0244B49
:104A8000234A126842F001021A60214B204AD26880
:104A900042F08072DA601F4B1F4A1A604FF46020A8
:104AA000FCF7F8FA034603F5D52303F2FC437B60D9
:104AB0007B68DA08194BA3FB02139B0A3B60184B77
:104AC0003A68013A1A61164B0222C3F8F020144BDF
:104AD0004FF48072C3F804234FF06043114AC3F8C7
:104AE000B02F4FF06043104AC3F8802E4FF0604360
:104AF0004FF06042D2F8002E42F00102C3F8002EBF
:104B00000837BD4680BD00BF00800C4000600040FB
:104B1000F0ED00E0001000E0FF1301401791650286
:104B2000000004E055CEACC50900010080B582B09C
:104B300000AF4FF07E637B607B681B68002B01D168
:104B4000002302E0FFF768FF012318460837BD463F
:104B500080BD00BF80F0004002E000BF81F0004156
:104B600042001FBF5FEA410392EA030F7FEA226C13
:104B70007FEA236C6AD04FEA1262D2EB1363C1BFA3
:104B8000D218414048404140B8BF5B42192B88BF12
:104B9000704710F0004F40F4000020F07F4018BF35
:104BA000404211F0004F41F4000121F07F4118BF55
:104BB000494292EA030F3FD0A2F1010241FA03FCFD
:104BC00010EB0C00C3F1200301FA03F100F00043E5
:104BD00002D5494260EB4000B0F5000F13D3B0F1AD
:104BE000807F06D340084FEA310102F10102FE2A1C
:104BF00051D2B1F1004F40EBC25008BF20F001008C
:104C000040EA03007047490040EB000010F4000F39
:104C1000A2F10102EDD1B0FA80FCACF1080CB2EBCC
:104C20000C0200FA0CF0AABF00EBC250524218432B
:104C3000BCBFD0401843704792F0000F81F40001D0
:104C400006BF80F400000132013BB5E74FEA4103A3
:104C50007FEA226C18BF7FEA236C21D092EA030F0F
:104C600004D092F0000F08BF0846704790EA010F89
:104C70001CBF0020704712F07F4F04D1400028BFB6
:104C800040F00040704712F100723CBF00F5000098
:104C9000704700F0004343F0FE4040F400007047CE
:104CA0007FEA226216BF08467FEA2363014642027A
:104CB00006BF5FEA412390EA010F40F4800070478D
:104CC0004FF0000304E000BF10F0004348BF404233
:104CD0005FEA000C08BF704743F0964301464FF06F
:104CE00000001CE050EA010208BF70474FF00003CB
:104CF0000AE000BF50EA010208BF704711F000430C
:104D000002D5404261EB41015FEA010C02BF8446DB
:104D10000146002043F0B64308BFA3F18053A3F53A
:104D20000003BCFA8CF2083AA3EBC25310DB01FA81
:104D300002FC634400FA02FCC2F12002BCF1004F05
:104D400020FA02F243EB020008BF20F00100704796
:104D500002F1200201FA02FCC2F1200250EA4C00EA
:104D600021FA02F243EB020008BF20EADC70704730
:104D70004FF0FF0C1CEAD0521EBF1CEAD15392EA3E
:104D80000C0F93EA0C0F6FD01A4480EA010C40021A
:104D900018BF5FEA41211ED04FF0006343EA501074
:104DA00043EA5111A0FB01310CF00040B1F5000FB6
:104DB0003EBF490041EAD3715B0040EA010062F165
:104DC0007F02FD2A1DD8B3F1004F40EBC25008BF4F
:104DD00020F00100704790F0000F0CF0004C08BF6D
:104DE00049024CEA502040EA51207F3AC2BFD2F13A
:104DF000FF0340EAC250704740F400004FF0000348
:104E0000013A5DDC12F1190FDCBF00F00040704781
:104E1000C2F10002410021FA02F1C2F1200200FABF
:104E200002FC5FEA310040F1000053EA4C0308BF86
:104E300020EADC70704792F0000F00F0004C02BFD7
:104E4000400010F4000F013AF9D040EA0C0093F052
:104E5000000F01F0004C02BF490011F4000F013BAC
:104E6000F9D041EA0C018FE70CEAD15392EA0C0F1A
:104E700018BF93EA0C0F0AD030F0004C18BF31F085
:104E8000004CD8D180EA010000F00040704790F05B
:104E9000000F17BF90F0004F084691F0000F91F0FF
:104EA000004F14D092EA0C0F01D142020FD193EAC5
:104EB0000C0F03D14B0218BF084608D180EA01004D
:104EC00000F0004040F0FE4040F40000704740F029
:104ED000FE4040F4400070474FF0FF0C1CEAD052F7
:104EE0001EBF1CEAD15392EA0C0F93EA0C0F69D053
:104EF000A2EB030280EA010C49024FEA402037D0BE
:104F00004FF0805343EA111143EA10130CF00040B4
:104F10008B4238BF5B0042F17D024FF4000C8B42A4
:104F200024BF5B1A40EA0C00B3EB510F24BFA3EB84
:104F3000510340EA5C00B3EB910F24BFA3EB910354
:104F400040EA9C00B3EBD10F24BFA3EBD10340EAAE
:104F5000DC001B0118BF5FEA1C1CE0D1FD2A3FF6F4
:104F600050AF8B4240EBC25008BF20F001007047A9
:104F70000CF0004C4CEA50207F32C2BFD2F1FF034C
:104F800040EAC250704740F400004FF00003013A7D
:104F900037E792F0000F00F0004C02BF400010F421
:104FA000000F013AF9D040EA0C0093F0000F01F035
:104FB000004C02BF490011F4000F013BF9D041EA57
:104FC0000C0195E70CEAD15392EA0C0F08D142028A
:104FD0007FF47DAF93EA0C0F7FF470AF084676E75D
:104FE00093EA0C0F04D14B023FF44CAF08466EE736
:104FF00030F0004C18BF31F0004CCAD130F0004204
:105000007FF45CAF31F000437FF43CAF5FE700BF5B
:1050100042000ED2B2F1FE4F0BD34FF09E03B3EB22
:10502000126209D44FEA002343F0004323FA02F04E
:1050300070474FF00000704712F1610F01D142023A
:1050400002D14FF0FF3070474FF00000704700BFB3
:105050004BB942B9002908BF002802D04FF0FF31F8
:10506000084600F03BB882B0EC462DE9005000F055
:105070001DF8DDF804E002B00CBC70472DE9704F5C
:10508000089E14461D468046894600F029F804FB18
:1050900001F3A4FB00AB00FB05329344B8EB0A0814
:1050A00069EB0B09C6E90089BDE8708F2DE9704FE7
:1050B000089E14461D468046894600F061F900FBB3
:1050C00005F5A0FB04AB04FB0154A344B8EB0A08AC
:1050D00069EB0B09C6E90089BDE8708F704700BF16
:1050E00000292DE9F00FC0F2A1800024002BC0F2AE
:1050F0009880154606460F46002B3FD18A4258D964
:10510000B2FA82F34BB1C3F1200201FA03F720FA9D
:1051100002F29D4000FA03F61743290CB7FBF1F2A7
:1051200001FB1277A8B200FB02F34FEA164C4CEADF
:105130000747BB4209D97F1902F1FF3C80F0058186
:10514000BB4240F20281023A2F44FF1AB7FBF1F34F
:1051500001FB137100FB03F0B6B246EA014188423D
:1051600008D9491903F1FF3780F0F180884240F2F5
:10517000EE80023B43EA0242002303E08B420AD95D
:1051800000231A461046194614B1404261EB410112
:10519000BDE8F00F7047B3FA83F8B8F1000F40F0A4
:1051A00088808B4202D3824200F2E28000230122F7
:1051B000E8E712B90123B3FBF2F5B5FA85F2002A4C
:1051C0003AD17F1B280C1FFA85FC0123B7FBF0F1B5
:1051D00000FB11770CFB01F24FEA164848EA07473B
:1051E000BA4207D97F1901F1FF3802D2BA4200F260
:1051F000C4804146BF1AB7FBF0F200FB12700CFBF3
:1052000002FCB6B246EA0040844507D9401902F1D3
:10521000FF3702D2844500F2AE803A4642EA0142AC
:10522000B0E7E443524263EB430362E7404261EB81
:1052300041014FF0FF3459E79540C2F1200927FAA8
:1052400009F126FA09F99740280CB1FBF0F800FBA8
:1052500018111FFA85FC0CFB08F349EA07094FEA0D
:10526000194747EA01418B4206FA02F608D9491963
:1052700008F1FF327AD28B4278D9A8F1020829448A
:10528000C91AB1FBF0F300FB13170CFB03F21FFA72
:1052900089F949EA0747BA4207D97F1903F1FF3173
:1052A00060D2BA425ED9023B2F44BF1A43EA084398
:1052B0008CE7C8F1200225FA02F103FA08FC27FA6C
:1052C00002F320FA02F207FA08F741EA0C0C4FEA5F
:1052D0001C49B3FBF9F109FB11331FFA8CFA0AFBE5
:1052E00001FB17433A0C42EA03439B4505FA08F0D9
:1052F00008D913EB0C0301F1FF3235D29B4533D9AA
:1053000002396344CBEB0303B3FBF9F209FB12331D
:105310000AFB02FABFB247EA0347BA4508D917EBBE
:105320000C0702F1FF331BD2BA4519D9023A674480
:1053300042EA0145A5FB0001CAEB07078F424FF087
:1053400000030AD305D02A461CE76246FDE63B4629
:1053500010E706FA08F68642F5D26A1E002311E726
:105360001A46E5E70B46A0E71146CBE7904687E7EC
:105370004346424606E7023A50E702392F4439E7EE
:105380002DE9F00F144605460E46002B43D18A4204
:1053900053D9B2FA82F757B1C7F1200620FA06F6C0
:1053A00001FA07F302FA07F400FA07F51E43210C8D
:1053B000B6FBF1F201FB1266A0B200FB02F32F0C68
:1053C00047EA0646B34209D9361902F1FF3780F0A1
:1053D000FD80B34240F2FA80023A2644F61AB6FB48
:1053E000F1F301FB136100FB03F0ADB245EA0141AB
:1053F000884208D9091903F1FF3680F0E980884214
:1054000040F2E680023B43EA02420023104619467E
:10541000BDE8F00F70478B424CD8B3FA83F6002EEC
:105420004FD18B4202D3824200F2DD80BDE8F00F03
:105430000023012210461946704712B90124B4FB1B
:10544000F2F4B4FA84F2002A40F08280091B260CA0
:10545000A7B20123B1FBF6F006FB101107FB00F227
:105460004FEA154C4CEA01418A4207D9091900F16B
:10547000FF3C02D28A4200F2C8806046891AB1FB22
:10548000F6F206FB121107FB02F7ADB245EA014541
:10549000AF4208D92C1902F1FF3180F09B80A7425E
:1054A00040F29880023A42EA004210461946BDE8AE
:1054B000F00F704700231A4610461946BDE8F00F5A
:1054C0007047C6F1200522FA05F703FA06F421FA1F
:1054D00005F301FA06FB20FA05F53C434FEA1448B0
:1054E000B3FBF8FC08FB1C331FFA84F909FB0CFA28
:1054F00045EA0B0B4FEA1B4545EA03439A4502FA7E
:1055000006F204D91B190CF1FF356FD3AC46CAEB78
:105510000303B3FBF8F508FB153309FB05F91FFA84
:105520008BFB4BEA0347B94504D93F1905F1FF331B
:1055300062D31D4645EA0C4CACFB0223C9EB0707BE
:105540009F424FF000054AD346D062462B465DE7A6
:105550009440C2F1200921FA09FC914020FA09F98E
:10556000260CBCFBF6F806FB18CCA7B207FB08F329
:1055700049EA01094FEA194141EA0C4C634500FA36
:1055800002F509D91CEB040C08F1FF323BD263454C
:1055900039D9A8F10208A444C3EB0C0CBCFBF6F308
:1055A00006FB13C107FB03F21FFA89F949EA01411F
:1055B0008A4207D9091903F1FF3022D28A4220D941
:1055C000023B2144891A43EA084343E73A4605E788
:1055D000334618E70A4666E7B0409042B5D20CF170
:1055E000FF32002312E7334632460FE79A458DD942
:1055F000ACF1020C23448AE7B9459AD9023D27440D
:1056000098E70346DEE79046C6E70238214435E7CF
:105610000028B8BF4042704708B5074B044613B195
:105620000021AFF30080054B1868836A03B19847E7
:10563000204600F05FFC00BF00000000086700008B
:1056400070B50E4B0E4D0024ED1AAD101E46AC4247
:1056500004D056F8242090470134F8E700F04CFCC1
:10566000084D094B0024ED1AAD101E46AC4204D083
:1056700056F8242090470134F8E770BDBC000020A4
:10568000BC000020C0000020BC00002002440346F3
:10569000934202D003F8011BFAE770470CB430B50F
:1056A000164B0C1E9DB01D6804DA8B232B604FF047
:1056B000FF301EE04FF40273ADF8143014BF04F154
:1056C000FF332346049307934FF6FF73029006902F
:1056D000ADF81630284621AB02A9209A019300F0BC
:1056E00073F8431CBCBF8B232B6014B1029B0022B8
:1056F0001A701DB0BDE8304002B07047B8000020FD
:10570000034613F8012B002AFBD1181A0138704701
:105710002DE9F0478D688146AB420C4692461F4604
:1057200043D38B8913F4906F3DD026680969022218
:10573000C1EB0608666906EB460696FBF2F608F131
:1057400001023A44964238BF16465B050FD53146F2
:1057500000F022FB054698B12169424600F0B4FAF8
:10576000A38923F4906343F08003A38113E03246BE
:1057700000F066FB054670B94846216900F0C8FA9A
:105780000C23C9F80030A3894FF0FF3043F04003E9
:10579000A381BDE8F087256166614544C8EB060634
:1057A0002560A6603D46AF4200D23D462A462068AD
:1057B000514600F092FAA36800205B1BA3602368A7
:1057C0001D442560BDE8F0872DE9F0439DB00393AB
:1057D0008B8907461C060D4616460CD50B6953B936
:1057E000402100F0D9FA2860286110B90C233B60F1
:1057F000C7E040236B610023099320238DF82930F3
:1058000030238DF82A3033461C4613F8012B1AB981
:10581000B4EB06090FD002E0252AF5D1F8E73846A7
:10582000294632464B46FFF773FF013000F0A48053
:10583000099B4B4409932378002B00F09D800023A3
:105840004FF0FF3204930793059206938DF853307F
:105850001A9304F101094D4E4C4630462178052239
:1058600000F024FA09F10109049B28B1861B0120EC
:10587000B04003430493EEE7D90644BF20228DF8DD
:1058800053201A0744BF2B228DF8532022782A2A4E
:1058900002D0079B21460EE0039A111D1268039166
:1058A000002A01DB079204E0524243F00203079210
:1058B000049301340AE00C4622780131303A092A77
:1058C00003D80A2000FB0323F5E7079323782E2B48
:1058D00019D163782A2B09D1039B02341A1D1B6846
:1058E0000392002BB8BF4FF0FF330BE0611C002385
:1058F0000C4622780131303A092A03D80A2000FBED
:105900000323F5E70593224E21783046032200F069
:10591000CDF930B1861B4020B040049B01340343D5
:10592000049321781B480622661C8DF8281000F08D
:10593000BDF988B1184B33B9039B073323F0070334
:105940000833039314E003AB0093384604A92A46B6
:10595000124BAFF3008007E003AB0093384604A975
:105960002A460E4B00F08EF8B0F1FF3F804603D080
:10597000099B4344099346E7AB895B0601D4099828
:1059800001E04FF0FF301DB0BDE8F0830C67000070
:1059900012670000166700000000000011570000A9
:1059A0002DE9F84315461F468A680B6906469A4258
:1059B000A8BF13462B6091F843200C46DDF82080E9
:1059C0000AB101332B602368990602D52B68023394
:1059D0002B60236813F006091DD094F84330226829
:1059E000003318BF012392061FD5E118302081F83B
:1059F00043005A1C94F845102244023382F84310A5
:105A000013E03046394604F119020123C047013042
:105A100007D009F10109E2682B68D31A9945F0DB38
:105A2000DBE74FF0FF30BDE8F8833046394604F13C
:105A30004302C0470130F4D023682A6803F006030C
:105A4000E168042B08BFC2EB01052369A2680CBF03
:105A500025EAE57500259A42C4BFC3EB0203ED18A1
:105A60004FF00009A9450ADA3046394604F11A0216
:105A70000123C0470130D4D009F10109F2E7002029
:105A8000BDE8F8832DE9FF470E7E80466E2E0C465A
:105A900091469A460C9D01F1430000F0A58011D873
:105AA000632E22D009D8002E00F0AF80582E40F08F
:105AB000BF8081F845607B4A4FE0642E1ED0692E7E
:105AC0001CD0B5E0732E00F0A48009D86F2E2BD027
:105AD000702E40F0AD800B6843F020030B6038E07F
